{
  "_format": "hh-sol-artifact-1",
  "contractName": "Incentive",
  "sourceName": "contracts/Incentive.sol",
  "abi": [
    {
      "inputs": [
        {
          "internalType": "address",
          "name": "_finder",
          "type": "address"
        },
        {
          "internalType": "string",
          "name": "_title",
          "type": "string"
        },
        {
          "internalType": "string",
          "name": "_targetName",
          "type": "string"
        },
        {
          "internalType": "string",
          "name": "_targetAge",
          "type": "string"
        },
        {
          "internalType": "string",
          "name": "_description",
          "type": "string"
        },
        {
          "internalType": "string",
          "name": "_evidence",
          "type": "string"
        }
      ],
      "name": "createReport",
      "outputs": [
        {
          "internalType": "uint256",
          "name": "",
          "type": "uint256"
        }
      ],
      "stateMutability": "nonpayable",
      "type": "function"
    },
    {
      "inputs": [],
      "name": "getReports",
      "outputs": [
        {
          "components": [
            {
              "internalType": "address",
              "name": "finder",
              "type": "address"
            },
            {
              "internalType": "string",
              "name": "title",
              "type": "string"
            },
            {
              "internalType": "string",
              "name": "targetName",
              "type": "string"
            },
            {
              "internalType": "string",
              "name": "targetAge",
              "type": "string"
            },
            {
              "internalType": "string",
              "name": "description",
              "type": "string"
            },
            {
              "internalType": "string",
              "name": "evidence",
              "type": "string"
            },
            {
              "internalType": "address[]",
              "name": "seeker",
              "type": "address[]"
            },
            {
              "internalType": "bool",
              "name": "accepted",
              "type": "bool"
            }
          ],
          "internalType": "struct Incentive.Report[]",
          "name": "",
          "type": "tuple[]"
        }
      ],
      "stateMutability": "view",
      "type": "function"
    },
    {
      "inputs": [],
      "name": "numberOfReports",
      "outputs": [
        {
          "internalType": "uint256",
          "name": "",
          "type": "uint256"
        }
      ],
      "stateMutability": "view",
      "type": "function"
    },
    {
      "inputs": [
        {
          "internalType": "uint256",
          "name": "_id",
          "type": "uint256"
        }
      ],
      "name": "payToReport",
      "outputs": [],
      "stateMutability": "payable",
      "type": "function"
    },
    {
      "inputs": [
        {
          "internalType": "uint256",
          "name": "",
          "type": "uint256"
        }
      ],
      "name": "reports",
      "outputs": [
        {
          "internalType": "address",
          "name": "finder",
          "type": "address"
        },
        {
          "internalType": "string",
          "name": "title",
          "type": "string"
        },
        {
          "internalType": "string",
          "name": "targetName",
          "type": "string"
        },
        {
          "internalType": "string",
          "name": "targetAge",
          "type": "string"
        },
        {
          "internalType": "string",
          "name": "description",
          "type": "string"
        },
        {
          "internalType": "string",
          "name": "evidence",
          "type": "string"
        },
        {
          "internalType": "bool",
          "name": "accepted",
          "type": "bool"
        }
      ],
      "stateMutability": "view",
      "type": "function"
    }
  ],
  "bytecode": "0x6080604052600060015534801561001557600080fd5b506117b7806100256000396000f3fe60806040526004361061004a5760003560e01c80632d4600891461004f57806389ce3e451461007a57806396675d34146100b7578063a3c86daf146100d3578063c942adf7146100fe575b600080fd5b34801561005b57600080fd5b50610064610141565b6040516100719190610bc9565b60405180910390f35b34801561008657600080fd5b506100a1600480360381019061009c9190610d9c565b610147565b6040516100ae9190610bc9565b60405180910390f35b6100d160048036038101906100cc9190610ee1565b610230565b005b3480156100df57600080fd5b506100e86103a3565b6040516100f591906111fb565b60405180910390f35b34801561010a57600080fd5b5061012560048036038101906101209190610ee1565b61083c565b6040516101389796959493929190611285565b60405180910390f35b60015481565b60008060008060015481526020019081526020016000209050878160000160006101000a81548173ffffffffffffffffffffffffffffffffffffffff021916908373ffffffffffffffffffffffffffffffffffffffff160217905550868160010190816101b49190611523565b50858160020190816101c69190611523565b50848160030190816101d89190611523565b50838160040190816101ea9190611523565b50828160050190816101fc9190611523565b506001600081548092919061021090611624565b919050555060018054610223919061166c565b9150509695505050505050565b60003490506000806000848152602001908152602001600020905080600601339080600181540180825580915050600190039060005260206000200160009091909190916101000a81548173ffffffffffffffffffffffffffffffffffffffff021916908373ffffffffffffffffffffffffffffffffffffffff16021790555060008160000160009054906101000a900473ffffffffffffffffffffffffffffffffffffffff1673ffffffffffffffffffffffffffffffffffffffff16836040516102fa906116d1565b60006040518083038185875af1925050503d8060008114610337576040519150601f19603f3d011682016040523d82523d6000602084013e61033c565b606091505b5050905080610380576040517f08c379a000000000000000000000000000000000000000000000000000000000815260040161037790611732565b60405180910390fd5b60018260070160006101000a81548160ff02191690831515021790555050505050565b6060600060015467ffffffffffffffff8111156103c3576103c2610c71565b5b6040519080825280602002602001820160405280156103fc57816020015b6103e9610b53565b8152602001906001900390816103e15790505b50905060005b60015481101561083457600080828152602001908152602001600020604051806101000160405290816000820160009054906101000a900473ffffffffffffffffffffffffffffffffffffffff1673ffffffffffffffffffffffffffffffffffffffff1673ffffffffffffffffffffffffffffffffffffffff16815260200160018201805461049090611346565b80601f01602080910402602001604051908101604052809291908181526020018280546104bc90611346565b80156105095780601f106104de57610100808354040283529160200191610509565b820191906000526020600020905b8154815290600101906020018083116104ec57829003601f168201915b5050505050815260200160028201805461052290611346565b80601f016020809104026020016040519081016040528092919081815260200182805461054e90611346565b801561059b5780601f106105705761010080835404028352916020019161059b565b820191906000526020600020905b81548152906001019060200180831161057e57829003601f168201915b505050505081526020016003820180546105b490611346565b80601f01602080910402602001604051908101604052809291908181526020018280546105e090611346565b801561062d5780601f106106025761010080835404028352916020019161062d565b820191906000526020600020905b81548152906001019060200180831161061057829003601f168201915b5050505050815260200160048201805461064690611346565b80601f016020809104026020016040519081016040528092919081815260200182805461067290611346565b80156106bf5780601f10610694576101008083540402835291602001916106bf565b820191906000526020600020905b8154815290600101906020018083116106a257829003601f168201915b505050505081526020016005820180546106d890611346565b80601f016020809104026020016040519081016040528092919081815260200182805461070490611346565b80156107515780601f1061072657610100808354040283529160200191610751565b820191906000526020600020905b81548152906001019060200180831161073457829003601f168201915b50505050508152602001600682018054806020026020016040519081016040528092919081815260200182805480156107df57602002820191906000526020600020905b8160009054906101000a900473ffffffffffffffffffffffffffffffffffffffff1673ffffffffffffffffffffffffffffffffffffffff1681526020019060010190808311610795575b505050505081526020016007820160009054906101000a900460ff16151515158152505082828151811061081657610815611752565b5b6020026020010181905250808061082c90611624565b915050610402565b508091505090565b60006020528060005260406000206000915090508060000160009054906101000a900473ffffffffffffffffffffffffffffffffffffffff169080600101805461088590611346565b80601f01602080910402602001604051908101604052809291908181526020018280546108b190611346565b80156108fe5780601f106108d3576101008083540402835291602001916108fe565b820191906000526020600020905b8154815290600101906020018083116108e157829003601f168201915b50505050509080600201805461091390611346565b80601f016020809104026020016040519081016040528092919081815260200182805461093f90611346565b801561098c5780601f106109615761010080835404028352916020019161098c565b820191906000526020600020905b81548152906001019060200180831161096f57829003601f168201915b5050505050908060030180546109a190611346565b80601f01602080910402602001604051908101604052809291908181526020018280546109cd90611346565b8015610a1a5780601f106109ef57610100808354040283529160200191610a1a565b820191906000526020600020905b8154815290600101906020018083116109fd57829003601f168201915b505050505090806004018054610a2f90611346565b80601f0160208091040260200160405190810160405280929190818152602001828054610a5b90611346565b8015610aa85780601f10610a7d57610100808354040283529160200191610aa8565b820191906000526020600020905b815481529060010190602001808311610a8b57829003601f168201915b505050505090806005018054610abd90611346565b80601f0160208091040260200160405190810160405280929190818152602001828054610ae990611346565b8015610b365780601f10610b0b57610100808354040283529160200191610b36565b820191906000526020600020905b815481529060010190602001808311610b1957829003601f168201915b5050505050908060070160009054906101000a900460ff16905087565b604051806101000160405280600073ffffffffffffffffffffffffffffffffffffffff1681526020016060815260200160608152602001606081526020016060815260200160608152602001606081526020016000151581525090565b6000819050919050565b610bc381610bb0565b82525050565b6000602082019050610bde6000830184610bba565b92915050565b6000604051905090565b600080fd5b600080fd5b600073ffffffffffffffffffffffffffffffffffffffff82169050919050565b6000610c2382610bf8565b9050919050565b610c3381610c18565b8114610c3e57600080fd5b50565b600081359050610c5081610c2a565b92915050565b600080fd5b600080fd5b6000601f19601f8301169050919050565b7f4e487b7100000000000000000000000000000000000000000000000000000000600052604160045260246000fd5b610ca982610c60565b810181811067ffffffffffffffff82111715610cc857610cc7610c71565b5b80604052505050565b6000610cdb610be4565b9050610ce78282610ca0565b919050565b600067ffffffffffffffff821115610d0757610d06610c71565b5b610d1082610c60565b9050602081019050919050565b82818337600083830152505050565b6000610d3f610d3a84610cec565b610cd1565b905082815260208101848484011115610d5b57610d5a610c5b565b5b610d66848285610d1d565b509392505050565b600082601f830112610d8357610d82610c56565b5b8135610d93848260208601610d2c565b91505092915050565b60008060008060008060c08789031215610db957610db8610bee565b5b6000610dc789828a01610c41565b965050602087013567ffffffffffffffff811115610de857610de7610bf3565b5b610df489828a01610d6e565b955050604087013567ffffffffffffffff811115610e1557610e14610bf3565b5b610e2189828a01610d6e565b945050606087013567ffffffffffffffff811115610e4257610e41610bf3565b5b610e4e89828a01610d6e565b935050608087013567ffffffffffffffff811115610e6f57610e6e610bf3565b5b610e7b89828a01610d6e565b92505060a087013567ffffffffffffffff811115610e9c57610e9b610bf3565b5b610ea889828a01610d6e565b9150509295509295509295565b610ebe81610bb0565b8114610ec957600080fd5b50565b600081359050610edb81610eb5565b92915050565b600060208284031215610ef757610ef6610bee565b5b6000610f0584828501610ecc565b91505092915050565b600081519050919050565b600082825260208201905092915050565b6000819050602082019050919050565b610f4381610c18565b82525050565b600081519050919050565b600082825260208201905092915050565b60005b83811015610f83578082015181840152602081019050610f68565b60008484015250505050565b6000610f9a82610f49565b610fa48185610f54565b9350610fb4818560208601610f65565b610fbd81610c60565b840191505092915050565b600081519050919050565b600082825260208201905092915050565b6000819050602082019050919050565b60006110008383610f3a565b60208301905092915050565b6000602082019050919050565b600061102482610fc8565b61102e8185610fd3565b935061103983610fe4565b8060005b8381101561106a5781516110518882610ff4565b975061105c8361100c565b92505060018101905061103d565b5085935050505092915050565b60008115159050919050565b61108c81611077565b82525050565b6000610100830160008301516110ab6000860182610f3a565b50602083015184820360208601526110c38282610f8f565b915050604083015184820360408601526110dd8282610f8f565b915050606083015184820360608601526110f78282610f8f565b915050608083015184820360808601526111118282610f8f565b91505060a083015184820360a086015261112b8282610f8f565b91505060c083015184820360c08601526111458282611019565b91505060e083015161115a60e0860182611083565b508091505092915050565b60006111718383611092565b905092915050565b6000602082019050919050565b600061119182610f0e565b61119b8185610f19565b9350836020820285016111ad85610f2a565b8060005b858110156111e957848403895281516111ca8582611165565b94506111d583611179565b925060208a019950506001810190506111b1565b50829750879550505050505092915050565b600060208201905081810360008301526112158184611186565b905092915050565b61122681610c18565b82525050565b600082825260208201905092915050565b600061124882610f49565b611252818561122c565b9350611262818560208601610f65565b61126b81610c60565b840191505092915050565b61127f81611077565b82525050565b600060e08201905061129a600083018a61121d565b81810360208301526112ac818961123d565b905081810360408301526112c0818861123d565b905081810360608301526112d4818761123d565b905081810360808301526112e8818661123d565b905081810360a08301526112fc818561123d565b905061130b60c0830184611276565b98975050505050505050565b7f4e487b7100000000000000000000000000000000000000000000000000000000600052602260045260246000fd5b6000600282049050600182168061135e57607f821691505b60208210810361137157611370611317565b5b50919050565b60008190508160005260206000209050919050565b60006020601f8301049050919050565b600082821b905092915050565b6000600883026113d97fffffffffffffffffffffffffffffffffffffffffffffffffffffffffffffffff8261139c565b6113e3868361139c565b95508019841693508086168417925050509392505050565b6000819050919050565b600061142061141b61141684610bb0565b6113fb565b610bb0565b9050919050565b6000819050919050565b61143a83611405565b61144e61144682611427565b8484546113a9565b825550505050565b600090565b611463611456565b61146e818484611431565b505050565b5b818110156114925761148760008261145b565b600181019050611474565b5050565b601f8211156114d7576114a881611377565b6114b18461138c565b810160208510156114c0578190505b6114d46114cc8561138c565b830182611473565b50505b505050565b600082821c905092915050565b60006114fa600019846008026114dc565b1980831691505092915050565b600061151383836114e9565b9150826002028217905092915050565b61152c82610f49565b67ffffffffffffffff81111561154557611544610c71565b5b61154f8254611346565b61155a828285611496565b600060209050601f83116001811461158d576000841561157b578287015190505b6115858582611507565b8655506115ed565b601f19841661159b86611377565b60005b828110156115c35784890151825560018201915060208501945060208101905061159e565b868310156115e057848901516115dc601f8916826114e9565b8355505b6001600288020188555050505b505050505050565b7f4e487b7100000000000000000000000000000000000000000000000000000000600052601160045260246000fd5b600061162f82610bb0565b91507fffffffffffffffffffffffffffffffffffffffffffffffffffffffffffffffff8203611661576116606115f5565b5b600182019050919050565b600061167782610bb0565b915061168283610bb0565b925082820390508181111561169a576116996115f5565b5b92915050565b600081905092915050565b50565b60006116bb6000836116a0565b91506116c6826116ab565b600082019050919050565b60006116dc826116ae565b9150819050919050565b7f5061796d656e74206661696c6564000000000000000000000000000000000000600082015250565b600061171c600e8361122c565b9150611727826116e6565b602082019050919050565b6000602082019050818103600083015261174b8161170f565b9050919050565b7f4e487b7100000000000000000000000000000000000000000000000000000000600052603260045260246000fdfea26469706673582212209ea6a146324621c703aca808cb22d09efac9e683fabfa91f76386c08071427c264736f6c63430008130033",
  "linkReferences": {},
  "deployedLinkReferences": {}
}