{
  "_format": "hh-sol-artifact-1",
  "contractName": "Incentive",
  "sourceName": "contracts/Incentive.sol",
  "abi": [
    {
      "inputs": [
        {
          "internalType": "address",
          "name": "_finder",
          "type": "address"
        },
        {
          "internalType": "string",
          "name": "_title",
          "type": "string"
        },
        {
          "internalType": "string",
          "name": "_targetName",
          "type": "string"
        },
        {
          "internalType": "string",
          "name": "_targetAge",
          "type": "string"
        },
        {
          "internalType": "string",
          "name": "_description",
          "type": "string"
        },
        {
          "internalType": "string",
          "name": "_evidence",
          "type": "string"
        },
        {
          "internalType": "string",
          "name": "_date",
          "type": "string"
        }
      ],
      "name": "createReport",
      "outputs": [
        {
          "internalType": "uint256",
          "name": "",
          "type": "uint256"
        }
      ],
      "stateMutability": "nonpayable",
      "type": "function"
    },
    {
      "inputs": [],
      "name": "getReports",
      "outputs": [
        {
          "components": [
            {
              "internalType": "address",
              "name": "finder",
              "type": "address"
            },
            {
              "internalType": "string",
              "name": "title",
              "type": "string"
            },
            {
              "internalType": "string",
              "name": "targetName",
              "type": "string"
            },
            {
              "internalType": "string",
              "name": "targetAge",
              "type": "string"
            },
            {
              "internalType": "string",
              "name": "description",
              "type": "string"
            },
            {
              "internalType": "string",
              "name": "evidence",
              "type": "string"
            },
            {
              "internalType": "string",
              "name": "date",
              "type": "string"
            },
            {
              "internalType": "address[]",
              "name": "seeker",
              "type": "address[]"
            }
          ],
          "internalType": "struct Incentive.Report[]",
          "name": "",
          "type": "tuple[]"
        }
      ],
      "stateMutability": "view",
      "type": "function"
    },
    {
      "inputs": [],
      "name": "numberOfReports",
      "outputs": [
        {
          "internalType": "uint256",
          "name": "",
          "type": "uint256"
        }
      ],
      "stateMutability": "view",
      "type": "function"
    },
    {
      "inputs": [
        {
          "internalType": "uint256",
          "name": "_id",
          "type": "uint256"
        }
      ],
      "name": "payToReport",
      "outputs": [],
      "stateMutability": "payable",
      "type": "function"
    },
    {
      "inputs": [
        {
          "internalType": "uint256",
          "name": "",
          "type": "uint256"
        }
      ],
      "name": "reports",
      "outputs": [
        {
          "internalType": "address",
          "name": "finder",
          "type": "address"
        },
        {
          "internalType": "string",
          "name": "title",
          "type": "string"
        },
        {
          "internalType": "string",
          "name": "targetName",
          "type": "string"
        },
        {
          "internalType": "string",
          "name": "targetAge",
          "type": "string"
        },
        {
          "internalType": "string",
          "name": "description",
          "type": "string"
        },
        {
          "internalType": "string",
          "name": "evidence",
          "type": "string"
        },
        {
          "internalType": "string",
          "name": "date",
          "type": "string"
        }
      ],
      "stateMutability": "view",
      "type": "function"
    }
  ],
  "bytecode": "0x6080604052600060015534801561001557600080fd5b506118b2806100256000396000f3fe60806040526004361061004a5760003560e01c80632d4600891461004f578063556fafdf1461007a57806396675d34146100b7578063a3c86daf146100d3578063c942adf7146100fe575b600080fd5b34801561005b57600080fd5b50610064610141565b6040516100719190610caf565b60405180910390f35b34801561008657600080fd5b506100a1600480360381019061009c9190610e82565b610147565b6040516100ae9190610caf565b60405180910390f35b6100d160048036038101906100cc9190610ff8565b610243565b005b3480156100df57600080fd5b506100e8610399565b6040516100f591906112fe565b60405180910390f35b34801561010a57600080fd5b5061012560048036038101906101209190610ff8565b6108a9565b6040516101389796959493929190611379565b60405180910390f35b60015481565b60008060008060015481526020019081526020016000209050888160000160006101000a81548173ffffffffffffffffffffffffffffffffffffffff021916908373ffffffffffffffffffffffffffffffffffffffff160217905550878160010190816101b4919061161e565b50868160020190816101c6919061161e565b50858160030190816101d8919061161e565b50848160040190816101ea919061161e565b50838160050190816101fc919061161e565b508281600601908161020e919061161e565b50600160008154809291906102229061171f565b9190505550600180546102359190611767565b915050979650505050505050565b60003490506000806000848152602001908152602001600020905080600701339080600181540180825580915050600190039060005260206000200160009091909190916101000a81548173ffffffffffffffffffffffffffffffffffffffff021916908373ffffffffffffffffffffffffffffffffffffffff16021790555060008160000160009054906101000a900473ffffffffffffffffffffffffffffffffffffffff1673ffffffffffffffffffffffffffffffffffffffff168360405161030d906117cc565b60006040518083038185875af1925050503d806000811461034a576040519150601f19603f3d011682016040523d82523d6000602084013e61034f565b606091505b5050905080610393576040517f08c379a000000000000000000000000000000000000000000000000000000000815260040161038a9061182d565b60405180910390fd5b50505050565b6060600060015467ffffffffffffffff8111156103b9576103b8610d57565b5b6040519080825280602002602001820160405280156103f257816020015b6103df610c3b565b8152602001906001900390816103d75790505b50905060005b6001548110156108a157600080828152602001908152602001600020604051806101000160405290816000820160009054906101000a900473ffffffffffffffffffffffffffffffffffffffff1673ffffffffffffffffffffffffffffffffffffffff1673ffffffffffffffffffffffffffffffffffffffff16815260200160018201805461048690611441565b80601f01602080910402602001604051908101604052809291908181526020018280546104b290611441565b80156104ff5780601f106104d4576101008083540402835291602001916104ff565b820191906000526020600020905b8154815290600101906020018083116104e257829003601f168201915b5050505050815260200160028201805461051890611441565b80601f016020809104026020016040519081016040528092919081815260200182805461054490611441565b80156105915780601f1061056657610100808354040283529160200191610591565b820191906000526020600020905b81548152906001019060200180831161057457829003601f168201915b505050505081526020016003820180546105aa90611441565b80601f01602080910402602001604051908101604052809291908181526020018280546105d690611441565b80156106235780601f106105f857610100808354040283529160200191610623565b820191906000526020600020905b81548152906001019060200180831161060657829003601f168201915b5050505050815260200160048201805461063c90611441565b80601f016020809104026020016040519081016040528092919081815260200182805461066890611441565b80156106b55780601f1061068a576101008083540402835291602001916106b5565b820191906000526020600020905b81548152906001019060200180831161069857829003601f168201915b505050505081526020016005820180546106ce90611441565b80601f01602080910402602001604051908101604052809291908181526020018280546106fa90611441565b80156107475780601f1061071c57610100808354040283529160200191610747565b820191906000526020600020905b81548152906001019060200180831161072a57829003601f168201915b5050505050815260200160068201805461076090611441565b80601f016020809104026020016040519081016040528092919081815260200182805461078c90611441565b80156107d95780601f106107ae576101008083540402835291602001916107d9565b820191906000526020600020905b8154815290600101906020018083116107bc57829003601f168201915b505050505081526020016007820180548060200260200160405190810160405280929190818152602001828054801561086757602002820191906000526020600020905b8160009054906101000a900473ffffffffffffffffffffffffffffffffffffffff1673ffffffffffffffffffffffffffffffffffffffff168152602001906001019080831161081d575b5050505050815250508282815181106108835761088261184d565b5b602002602001018190525080806108999061171f565b9150506103f8565b508091505090565b60006020528060005260406000206000915090508060000160009054906101000a900473ffffffffffffffffffffffffffffffffffffffff16908060010180546108f290611441565b80601f016020809104026020016040519081016040528092919081815260200182805461091e90611441565b801561096b5780601f106109405761010080835404028352916020019161096b565b820191906000526020600020905b81548152906001019060200180831161094e57829003601f168201915b50505050509080600201805461098090611441565b80601f01602080910402602001604051908101604052809291908181526020018280546109ac90611441565b80156109f95780601f106109ce576101008083540402835291602001916109f9565b820191906000526020600020905b8154815290600101906020018083116109dc57829003601f168201915b505050505090806003018054610a0e90611441565b80601f0160208091040260200160405190810160405280929190818152602001828054610a3a90611441565b8015610a875780601f10610a5c57610100808354040283529160200191610a87565b820191906000526020600020905b815481529060010190602001808311610a6a57829003601f168201915b505050505090806004018054610a9c90611441565b80601f0160208091040260200160405190810160405280929190818152602001828054610ac890611441565b8015610b155780601f10610aea57610100808354040283529160200191610b15565b820191906000526020600020905b815481529060010190602001808311610af857829003601f168201915b505050505090806005018054610b2a90611441565b80601f0160208091040260200160405190810160405280929190818152602001828054610b5690611441565b8015610ba35780601f10610b7857610100808354040283529160200191610ba3565b820191906000526020600020905b815481529060010190602001808311610b8657829003601f168201915b505050505090806006018054610bb890611441565b80601f0160208091040260200160405190810160405280929190818152602001828054610be490611441565b8015610c315780601f10610c0657610100808354040283529160200191610c31565b820191906000526020600020905b815481529060010190602001808311610c1457829003601f168201915b5050505050905087565b604051806101000160405280600073ffffffffffffffffffffffffffffffffffffffff168152602001606081526020016060815260200160608152602001606081526020016060815260200160608152602001606081525090565b6000819050919050565b610ca981610c96565b82525050565b6000602082019050610cc46000830184610ca0565b92915050565b6000604051905090565b600080fd5b600080fd5b600073ffffffffffffffffffffffffffffffffffffffff82169050919050565b6000610d0982610cde565b9050919050565b610d1981610cfe565b8114610d2457600080fd5b50565b600081359050610d3681610d10565b92915050565b600080fd5b600080fd5b6000601f19601f8301169050919050565b7f4e487b7100000000000000000000000000000000000000000000000000000000600052604160045260246000fd5b610d8f82610d46565b810181811067ffffffffffffffff82111715610dae57610dad610d57565b5b80604052505050565b6000610dc1610cca565b9050610dcd8282610d86565b919050565b600067ffffffffffffffff821115610ded57610dec610d57565b5b610df682610d46565b9050602081019050919050565b82818337600083830152505050565b6000610e25610e2084610dd2565b610db7565b905082815260208101848484011115610e4157610e40610d41565b5b610e4c848285610e03565b509392505050565b600082601f830112610e6957610e68610d3c565b5b8135610e79848260208601610e12565b91505092915050565b600080600080600080600060e0888a031215610ea157610ea0610cd4565b5b6000610eaf8a828b01610d27565b975050602088013567ffffffffffffffff811115610ed057610ecf610cd9565b5b610edc8a828b01610e54565b965050604088013567ffffffffffffffff811115610efd57610efc610cd9565b5b610f098a828b01610e54565b955050606088013567ffffffffffffffff811115610f2a57610f29610cd9565b5b610f368a828b01610e54565b945050608088013567ffffffffffffffff811115610f5757610f56610cd9565b5b610f638a828b01610e54565b93505060a088013567ffffffffffffffff811115610f8457610f83610cd9565b5b610f908a828b01610e54565b92505060c088013567ffffffffffffffff811115610fb157610fb0610cd9565b5b610fbd8a828b01610e54565b91505092959891949750929550565b610fd581610c96565b8114610fe057600080fd5b50565b600081359050610ff281610fcc565b92915050565b60006020828403121561100e5761100d610cd4565b5b600061101c84828501610fe3565b91505092915050565b600081519050919050565b600082825260208201905092915050565b6000819050602082019050919050565b61105a81610cfe565b82525050565b600081519050919050565b600082825260208201905092915050565b60005b8381101561109a57808201518184015260208101905061107f565b60008484015250505050565b60006110b182611060565b6110bb818561106b565b93506110cb81856020860161107c565b6110d481610d46565b840191505092915050565b600081519050919050565b600082825260208201905092915050565b6000819050602082019050919050565b60006111178383611051565b60208301905092915050565b6000602082019050919050565b600061113b826110df565b61114581856110ea565b9350611150836110fb565b8060005b83811015611181578151611168888261110b565b975061117383611123565b925050600181019050611154565b5085935050505092915050565b6000610100830160008301516111a76000860182611051565b50602083015184820360208601526111bf82826110a6565b915050604083015184820360408601526111d982826110a6565b915050606083015184820360608601526111f382826110a6565b9150506080830151848203608086015261120d82826110a6565b91505060a083015184820360a086015261122782826110a6565b91505060c083015184820360c086015261124182826110a6565b91505060e083015184820360e086015261125b8282611130565b9150508091505092915050565b6000611274838361118e565b905092915050565b6000602082019050919050565b600061129482611025565b61129e8185611030565b9350836020820285016112b085611041565b8060005b858110156112ec57848403895281516112cd8582611268565b94506112d88361127c565b925060208a019950506001810190506112b4565b50829750879550505050505092915050565b600060208201905081810360008301526113188184611289565b905092915050565b61132981610cfe565b82525050565b600082825260208201905092915050565b600061134b82611060565b611355818561132f565b935061136581856020860161107c565b61136e81610d46565b840191505092915050565b600060e08201905061138e600083018a611320565b81810360208301526113a08189611340565b905081810360408301526113b48188611340565b905081810360608301526113c88187611340565b905081810360808301526113dc8186611340565b905081810360a08301526113f08185611340565b905081810360c08301526114048184611340565b905098975050505050505050565b7f4e487b7100000000000000000000000000000000000000000000000000000000600052602260045260246000fd5b6000600282049050600182168061145957607f821691505b60208210810361146c5761146b611412565b5b50919050565b60008190508160005260206000209050919050565b60006020601f8301049050919050565b600082821b905092915050565b6000600883026114d47fffffffffffffffffffffffffffffffffffffffffffffffffffffffffffffffff82611497565b6114de8683611497565b95508019841693508086168417925050509392505050565b6000819050919050565b600061151b61151661151184610c96565b6114f6565b610c96565b9050919050565b6000819050919050565b61153583611500565b61154961154182611522565b8484546114a4565b825550505050565b600090565b61155e611551565b61156981848461152c565b505050565b5b8181101561158d57611582600082611556565b60018101905061156f565b5050565b601f8211156115d2576115a381611472565b6115ac84611487565b810160208510156115bb578190505b6115cf6115c785611487565b83018261156e565b50505b505050565b600082821c905092915050565b60006115f5600019846008026115d7565b1980831691505092915050565b600061160e83836115e4565b9150826002028217905092915050565b61162782611060565b67ffffffffffffffff8111156116405761163f610d57565b5b61164a8254611441565b611655828285611591565b600060209050601f8311600181146116885760008415611676578287015190505b6116808582611602565b8655506116e8565b601f19841661169686611472565b60005b828110156116be57848901518255600182019150602085019450602081019050611699565b868310156116db57848901516116d7601f8916826115e4565b8355505b6001600288020188555050505b505050505050565b7f4e487b7100000000000000000000000000000000000000000000000000000000600052601160045260246000fd5b600061172a82610c96565b91507fffffffffffffffffffffffffffffffffffffffffffffffffffffffffffffffff820361175c5761175b6116f0565b5b600182019050919050565b600061177282610c96565b915061177d83610c96565b9250828203905081811115611795576117946116f0565b5b92915050565b600081905092915050565b50565b60006117b660008361179b565b91506117c1826117a6565b600082019050919050565b60006117d7826117a9565b9150819050919050565b7f5061796d656e74206661696c6564000000000000000000000000000000000000600082015250565b6000611817600e8361132f565b9150611822826117e1565b602082019050919050565b600060208201905081810360008301526118468161180a565b9050919050565b7f4e487b7100000000000000000000000000000000000000000000000000000000600052603260045260246000fdfea26469706673582212206abef3b98018f5964cea793e67e68bfe9e9507daceb21f499201283cdf18eb2164736f6c63430008120033",
  "linkReferences": {},
  "deployedLinkReferences": {}
}