{
  "_format": "hh-sol-artifact-1",
  "contractName": "Incentive",
  "sourceName": "contracts/Incentive.sol",
  "abi": [
    {
      "inputs": [
        {
          "internalType": "address",
          "name": "_finder",
          "type": "address"
        },
        {
          "internalType": "string",
          "name": "_category",
          "type": "string"
        },
        {
          "internalType": "string",
          "name": "_title",
          "type": "string"
        },
        {
          "internalType": "string",
          "name": "_targetName",
          "type": "string"
        },
        {
          "internalType": "string",
          "name": "_targetAge",
          "type": "string"
        },
        {
          "internalType": "string",
          "name": "_description",
          "type": "string"
        },
        {
          "internalType": "string",
          "name": "_evidence",
          "type": "string"
        },
        {
          "internalType": "string",
          "name": "_date",
          "type": "string"
        },
        {
          "internalType": "string",
          "name": "_status",
          "type": "string"
        },
        {
          "internalType": "string",
          "name": "_rejectionReason",
          "type": "string"
        }
      ],
      "name": "createReport",
      "outputs": [
        {
          "internalType": "uint256",
          "name": "",
          "type": "uint256"
        }
      ],
      "stateMutability": "nonpayable",
      "type": "function"
    },
    {
      "inputs": [],
      "name": "getReports",
      "outputs": [
        {
          "components": [
            {
              "internalType": "address",
              "name": "finder",
              "type": "address"
            },
            {
              "internalType": "string",
              "name": "category",
              "type": "string"
            },
            {
              "internalType": "string",
              "name": "title",
              "type": "string"
            },
            {
              "internalType": "string",
              "name": "targetName",
              "type": "string"
            },
            {
              "internalType": "string",
              "name": "targetAge",
              "type": "string"
            },
            {
              "internalType": "string",
              "name": "description",
              "type": "string"
            },
            {
              "internalType": "string",
              "name": "evidence",
              "type": "string"
            },
            {
              "internalType": "string",
              "name": "date",
              "type": "string"
            },
            {
              "internalType": "address[]",
              "name": "seeker",
              "type": "address[]"
            },
            {
              "internalType": "string",
              "name": "status",
              "type": "string"
            },
            {
              "internalType": "string",
              "name": "rejectionReason",
              "type": "string"
            }
          ],
          "internalType": "struct Incentive.Report[]",
          "name": "",
          "type": "tuple[]"
        }
      ],
      "stateMutability": "view",
      "type": "function"
    },
    {
      "inputs": [],
      "name": "numberOfReports",
      "outputs": [
        {
          "internalType": "uint256",
          "name": "",
          "type": "uint256"
        }
      ],
      "stateMutability": "view",
      "type": "function"
    },
    {
      "inputs": [
        {
          "internalType": "uint256",
          "name": "reportId",
          "type": "uint256"
        },
        {
          "internalType": "string",
          "name": "reason",
          "type": "string"
        }
      ],
      "name": "rejectReport",
      "outputs": [],
      "stateMutability": "nonpayable",
      "type": "function"
    },
    {
      "inputs": [
        {
          "internalType": "uint256",
          "name": "",
          "type": "uint256"
        }
      ],
      "name": "reports",
      "outputs": [
        {
          "internalType": "address",
          "name": "finder",
          "type": "address"
        },
        {
          "internalType": "string",
          "name": "category",
          "type": "string"
        },
        {
          "internalType": "string",
          "name": "title",
          "type": "string"
        },
        {
          "internalType": "string",
          "name": "targetName",
          "type": "string"
        },
        {
          "internalType": "string",
          "name": "targetAge",
          "type": "string"
        },
        {
          "internalType": "string",
          "name": "description",
          "type": "string"
        },
        {
          "internalType": "string",
          "name": "evidence",
          "type": "string"
        },
        {
          "internalType": "string",
          "name": "date",
          "type": "string"
        },
        {
          "internalType": "string",
          "name": "status",
          "type": "string"
        },
        {
          "internalType": "string",
          "name": "rejectionReason",
          "type": "string"
        }
      ],
      "stateMutability": "view",
      "type": "function"
    },
    {
      "inputs": [
        {
          "internalType": "uint256",
          "name": "reportId",
          "type": "uint256"
        },
        {
          "internalType": "address",
          "name": "to",
          "type": "address"
        }
      ],
      "name": "send",
      "outputs": [],
      "stateMutability": "payable",
      "type": "function"
    }
  ],
  "bytecode": "0x6080604052600060015534801561001557600080fd5b50611e81806100256000396000f3fe6080604052600436106100555760003560e01c80630f3a25701461005a5780632d460089146100835780635fd62a57146100ae578063785d04f5146100eb578063a3c86daf14610107578063c942adf714610132575b600080fd5b34801561006657600080fd5b50610081600480360381019061007c9190611232565b610178565b005b34801561008f57600080fd5b506100986101ec565b6040516100a5919061129d565b60405180910390f35b3480156100ba57600080fd5b506100d560048036038101906100d09190611316565b6101f2565b6040516100e2919061129d565b60405180910390f35b610105600480360381019061010091906114f1565b610327565b005b34801561011357600080fd5b5061011c610430565b604051610129919061185e565b60405180910390f35b34801561013e57600080fd5b5061015960048036038101906101549190611880565b610af6565b60405161016f9a99989796959493929190611906565b60405180910390f35b600080600084815260200190815260200160002090506040518060400160405280600881526020017f72656a65637465640000000000000000000000000000000000000000000000008152508160090190816101d49190611bed565b508181600a0190816101e69190611bed565b50505050565b60015481565b600080600080600154815260200190815260200160002090508b8160000160006101000a81548173ffffffffffffffffffffffffffffffffffffffff021916908373ffffffffffffffffffffffffffffffffffffffff1602179055508a81600101908161025f9190611bed565b50898160020190816102719190611bed565b50888160030190816102839190611bed565b50878160040190816102959190611bed565b50868160050190816102a79190611bed565b50858160060190816102b99190611bed565b50848160070190816102cb9190611bed565b50838160090190816102dd9190611bed565b508281600a0190816102ef9190611bed565b506001600081548092919061030390611cee565b9190505550600180546103169190611d36565b9150509a9950505050505050505050565b60008173ffffffffffffffffffffffffffffffffffffffff163460405161034d90611d9b565b60006040518083038185875af1925050503d806000811461038a576040519150601f19603f3d011682016040523d82523d6000602084013e61038f565b606091505b50509050806103d3576040517f08c379a00000000000000000000000000000000000000000000000000000000081526004016103ca90611dfc565b60405180910390fd5b6040518060400160405280600881526020017f6163636570746564000000000000000000000000000000000000000000000000815250600080858152602001908152602001600020600901908161042a9190611bed565b50505050565b6060600060015467ffffffffffffffff8111156104505761044f611107565b5b60405190808252806020026020018201604052801561048957816020015b610476611032565b81526020019060019003908161046e5790505b50905060005b600154811015610aee57600080828152602001908152602001600020604051806101600160405290816000820160009054906101000a900473ffffffffffffffffffffffffffffffffffffffff1673ffffffffffffffffffffffffffffffffffffffff1673ffffffffffffffffffffffffffffffffffffffff16815260200160018201805461051d90611a10565b80601f016020809104026020016040519081016040528092919081815260200182805461054990611a10565b80156105965780601f1061056b57610100808354040283529160200191610596565b820191906000526020600020905b81548152906001019060200180831161057957829003601f168201915b505050505081526020016002820180546105af90611a10565b80601f01602080910402602001604051908101604052809291908181526020018280546105db90611a10565b80156106285780601f106105fd57610100808354040283529160200191610628565b820191906000526020600020905b81548152906001019060200180831161060b57829003601f168201915b5050505050815260200160038201805461064190611a10565b80601f016020809104026020016040519081016040528092919081815260200182805461066d90611a10565b80156106ba5780601f1061068f576101008083540402835291602001916106ba565b820191906000526020600020905b81548152906001019060200180831161069d57829003601f168201915b505050505081526020016004820180546106d390611a10565b80601f01602080910402602001604051908101604052809291908181526020018280546106ff90611a10565b801561074c5780601f106107215761010080835404028352916020019161074c565b820191906000526020600020905b81548152906001019060200180831161072f57829003601f168201915b5050505050815260200160058201805461076590611a10565b80601f016020809104026020016040519081016040528092919081815260200182805461079190611a10565b80156107de5780601f106107b3576101008083540402835291602001916107de565b820191906000526020600020905b8154815290600101906020018083116107c157829003601f168201915b505050505081526020016006820180546107f790611a10565b80601f016020809104026020016040519081016040528092919081815260200182805461082390611a10565b80156108705780601f1061084557610100808354040283529160200191610870565b820191906000526020600020905b81548152906001019060200180831161085357829003601f168201915b5050505050815260200160078201805461088990611a10565b80601f01602080910402602001604051908101604052809291908181526020018280546108b590611a10565b80156109025780601f106108d757610100808354040283529160200191610902565b820191906000526020600020905b8154815290600101906020018083116108e557829003601f168201915b505050505081526020016008820180548060200260200160405190810160405280929190818152602001828054801561099057602002820191906000526020600020905b8160009054906101000a900473ffffffffffffffffffffffffffffffffffffffff1673ffffffffffffffffffffffffffffffffffffffff1681526020019060010190808311610946575b505050505081526020016009820180546109a990611a10565b80601f01602080910402602001604051908101604052809291908181526020018280546109d590611a10565b8015610a225780601f106109f757610100808354040283529160200191610a22565b820191906000526020600020905b815481529060010190602001808311610a0557829003601f168201915b50505050508152602001600a82018054610a3b90611a10565b80601f0160208091040260200160405190810160405280929190818152602001828054610a6790611a10565b8015610ab45780601f10610a8957610100808354040283529160200191610ab4565b820191906000526020600020905b815481529060010190602001808311610a9757829003601f168201915b505050505081525050828281518110610ad057610acf611e1c565b5b60200260200101819052508080610ae690611cee565b91505061048f565b508091505090565b60006020528060005260406000206000915090508060000160009054906101000a900473ffffffffffffffffffffffffffffffffffffffff1690806001018054610b3f90611a10565b80601f0160208091040260200160405190810160405280929190818152602001828054610b6b90611a10565b8015610bb85780601f10610b8d57610100808354040283529160200191610bb8565b820191906000526020600020905b815481529060010190602001808311610b9b57829003601f168201915b505050505090806002018054610bcd90611a10565b80601f0160208091040260200160405190810160405280929190818152602001828054610bf990611a10565b8015610c465780601f10610c1b57610100808354040283529160200191610c46565b820191906000526020600020905b815481529060010190602001808311610c2957829003601f168201915b505050505090806003018054610c5b90611a10565b80601f0160208091040260200160405190810160405280929190818152602001828054610c8790611a10565b8015610cd45780601f10610ca957610100808354040283529160200191610cd4565b820191906000526020600020905b815481529060010190602001808311610cb757829003601f168201915b505050505090806004018054610ce990611a10565b80601f0160208091040260200160405190810160405280929190818152602001828054610d1590611a10565b8015610d625780601f10610d3757610100808354040283529160200191610d62565b820191906000526020600020905b815481529060010190602001808311610d4557829003601f168201915b505050505090806005018054610d7790611a10565b80601f0160208091040260200160405190810160405280929190818152602001828054610da390611a10565b8015610df05780601f10610dc557610100808354040283529160200191610df0565b820191906000526020600020905b815481529060010190602001808311610dd357829003601f168201915b505050505090806006018054610e0590611a10565b80601f0160208091040260200160405190810160405280929190818152602001828054610e3190611a10565b8015610e7e5780601f10610e5357610100808354040283529160200191610e7e565b820191906000526020600020905b815481529060010190602001808311610e6157829003601f168201915b505050505090806007018054610e9390611a10565b80601f0160208091040260200160405190810160405280929190818152602001828054610ebf90611a10565b8015610f0c5780601f10610ee157610100808354040283529160200191610f0c565b820191906000526020600020905b815481529060010190602001808311610eef57829003601f168201915b505050505090806009018054610f2190611a10565b80601f0160208091040260200160405190810160405280929190818152602001828054610f4d90611a10565b8015610f9a5780601f10610f6f57610100808354040283529160200191610f9a565b820191906000526020600020905b815481529060010190602001808311610f7d57829003601f168201915b50505050509080600a018054610faf90611a10565b80601f0160208091040260200160405190810160405280929190818152602001828054610fdb90611a10565b80156110285780601f10610ffd57610100808354040283529160200191611028565b820191906000526020600020905b81548152906001019060200180831161100b57829003601f168201915b505050505090508a565b604051806101600160405280600073ffffffffffffffffffffffffffffffffffffffff168152602001606081526020016060815260200160608152602001606081526020016060815260200160608152602001606081526020016060815260200160608152602001606081525090565b6000604051905090565b600080fd5b600080fd5b6000819050919050565b6110c9816110b6565b81146110d457600080fd5b50565b6000813590506110e6816110c0565b92915050565b600080fd5b600080fd5b6000601f19601f8301169050919050565b7f4e487b7100000000000000000000000000000000000000000000000000000000600052604160045260246000fd5b61113f826110f6565b810181811067ffffffffffffffff8211171561115e5761115d611107565b5b80604052505050565b60006111716110a2565b905061117d8282611136565b919050565b600067ffffffffffffffff82111561119d5761119c611107565b5b6111a6826110f6565b9050602081019050919050565b82818337600083830152505050565b60006111d56111d084611182565b611167565b9050828152602081018484840111156111f1576111f06110f1565b5b6111fc8482856111b3565b509392505050565b600082601f830112611219576112186110ec565b5b81356112298482602086016111c2565b91505092915050565b60008060408385031215611249576112486110ac565b5b6000611257858286016110d7565b925050602083013567ffffffffffffffff811115611278576112776110b1565b5b61128485828601611204565b9150509250929050565b611297816110b6565b82525050565b60006020820190506112b2600083018461128e565b92915050565b600073ffffffffffffffffffffffffffffffffffffffff82169050919050565b60006112e3826112b8565b9050919050565b6112f3816112d8565b81146112fe57600080fd5b50565b600081359050611310816112ea565b92915050565b6000806000806000806000806000806101408b8d03121561133a576113396110ac565b5b60006113488d828e01611301565b9a505060208b013567ffffffffffffffff811115611369576113686110b1565b5b6113758d828e01611204565b99505060408b013567ffffffffffffffff811115611396576113956110b1565b5b6113a28d828e01611204565b98505060608b013567ffffffffffffffff8111156113c3576113c26110b1565b5b6113cf8d828e01611204565b97505060808b013567ffffffffffffffff8111156113f0576113ef6110b1565b5b6113fc8d828e01611204565b96505060a08b013567ffffffffffffffff81111561141d5761141c6110b1565b5b6114298d828e01611204565b95505060c08b013567ffffffffffffffff81111561144a576114496110b1565b5b6114568d828e01611204565b94505060e08b013567ffffffffffffffff811115611477576114766110b1565b5b6114838d828e01611204565b9350506101008b013567ffffffffffffffff8111156114a5576114a46110b1565b5b6114b18d828e01611204565b9250506101208b013567ffffffffffffffff8111156114d3576114d26110b1565b5b6114df8d828e01611204565b9150509295989b9194979a5092959850565b60008060408385031215611508576115076110ac565b5b6000611516858286016110d7565b925050602061152785828601611301565b9150509250929050565b600081519050919050565b600082825260208201905092915050565b6000819050602082019050919050565b611566816112d8565b82525050565b600081519050919050565b600082825260208201905092915050565b60005b838110156115a657808201518184015260208101905061158b565b60008484015250505050565b60006115bd8261156c565b6115c78185611577565b93506115d7818560208601611588565b6115e0816110f6565b840191505092915050565b600081519050919050565b600082825260208201905092915050565b6000819050602082019050919050565b6000611623838361155d565b60208301905092915050565b6000602082019050919050565b6000611647826115eb565b61165181856115f6565b935061165c83611607565b8060005b8381101561168d5781516116748882611617565b975061167f8361162f565b925050600181019050611660565b5085935050505092915050565b6000610160830160008301516116b3600086018261155d565b50602083015184820360208601526116cb82826115b2565b915050604083015184820360408601526116e582826115b2565b915050606083015184820360608601526116ff82826115b2565b9150506080830151848203608086015261171982826115b2565b91505060a083015184820360a086015261173382826115b2565b91505060c083015184820360c086015261174d82826115b2565b91505060e083015184820360e086015261176782826115b2565b915050610100830151848203610100860152611783828261163c565b91505061012083015184820361012086015261179f82826115b2565b9150506101408301518482036101408601526117bb82826115b2565b9150508091505092915050565b60006117d4838361169a565b905092915050565b6000602082019050919050565b60006117f482611531565b6117fe818561153c565b9350836020820285016118108561154d565b8060005b8581101561184c578484038952815161182d85826117c8565b9450611838836117dc565b925060208a01995050600181019050611814565b50829750879550505050505092915050565b6000602082019050818103600083015261187881846117e9565b905092915050565b600060208284031215611896576118956110ac565b5b60006118a4848285016110d7565b91505092915050565b6118b6816112d8565b82525050565b600082825260208201905092915050565b60006118d88261156c565b6118e281856118bc565b93506118f2818560208601611588565b6118fb816110f6565b840191505092915050565b60006101408201905061191c600083018d6118ad565b818103602083015261192e818c6118cd565b90508181036040830152611942818b6118cd565b90508181036060830152611956818a6118cd565b9050818103608083015261196a81896118cd565b905081810360a083015261197e81886118cd565b905081810360c083015261199281876118cd565b905081810360e08301526119a681866118cd565b90508181036101008301526119bb81856118cd565b90508181036101208301526119d081846118cd565b90509b9a5050505050505050505050565b7f4e487b7100000000000000000000000000000000000000000000000000000000600052602260045260246000fd5b60006002820490506001821680611a2857607f821691505b602082108103611a3b57611a3a6119e1565b5b50919050565b60008190508160005260206000209050919050565b60006020601f8301049050919050565b600082821b905092915050565b600060088302611aa37fffffffffffffffffffffffffffffffffffffffffffffffffffffffffffffffff82611a66565b611aad8683611a66565b95508019841693508086168417925050509392505050565b6000819050919050565b6000611aea611ae5611ae0846110b6565b611ac5565b6110b6565b9050919050565b6000819050919050565b611b0483611acf565b611b18611b1082611af1565b848454611a73565b825550505050565b600090565b611b2d611b20565b611b38818484611afb565b505050565b5b81811015611b5c57611b51600082611b25565b600181019050611b3e565b5050565b601f821115611ba157611b7281611a41565b611b7b84611a56565b81016020851015611b8a578190505b611b9e611b9685611a56565b830182611b3d565b50505b505050565b600082821c905092915050565b6000611bc460001984600802611ba6565b1980831691505092915050565b6000611bdd8383611bb3565b9150826002028217905092915050565b611bf68261156c565b67ffffffffffffffff811115611c0f57611c0e611107565b5b611c198254611a10565b611c24828285611b60565b600060209050601f831160018114611c575760008415611c45578287015190505b611c4f8582611bd1565b865550611cb7565b601f198416611c6586611a41565b60005b82811015611c8d57848901518255600182019150602085019450602081019050611c68565b86831015611caa5784890151611ca6601f891682611bb3565b8355505b6001600288020188555050505b505050505050565b7f4e487b7100000000000000000000000000000000000000000000000000000000600052601160045260246000fd5b6000611cf9826110b6565b91507fffffffffffffffffffffffffffffffffffffffffffffffffffffffffffffffff8203611d2b57611d2a611cbf565b5b600182019050919050565b6000611d41826110b6565b9150611d4c836110b6565b9250828203905081811115611d6457611d63611cbf565b5b92915050565b600081905092915050565b50565b6000611d85600083611d6a565b9150611d9082611d75565b600082019050919050565b6000611da682611d78565b9150819050919050565b7f4661696c656420746f2073656e64204554480000000000000000000000000000600082015250565b6000611de66012836118bc565b9150611df182611db0565b602082019050919050565b60006020820190508181036000830152611e1581611dd9565b9050919050565b7f4e487b7100000000000000000000000000000000000000000000000000000000600052603260045260246000fdfea2646970667358221220fbb652ee536aad05bb19c98a36060d4d9b16887004cd99ef92532e4a6ea6045964736f6c63430008120033",
  "linkReferences": {},
  "deployedLinkReferences": {}
}