{
  "_format": "hh-sol-artifact-1",
  "contractName": "Incentive",
  "sourceName": "contracts/Incentive.sol",
  "abi": [
    {
      "inputs": [
        {
          "internalType": "address",
          "name": "_verifierAddress",
          "type": "address"
        }
      ],
      "stateMutability": "nonpayable",
      "type": "constructor"
    },
    {
      "inputs": [
        {
          "internalType": "address",
          "name": "_finder",
          "type": "address"
        },
        {
          "internalType": "string",
          "name": "_category",
          "type": "string"
        },
        {
          "internalType": "string",
          "name": "_title",
          "type": "string"
        },
        {
          "internalType": "string",
          "name": "_targetName",
          "type": "string"
        },
        {
          "internalType": "string",
          "name": "_targetAge",
          "type": "string"
        },
        {
          "internalType": "string",
          "name": "_description",
          "type": "string"
        },
        {
          "internalType": "string",
          "name": "_evidence",
          "type": "string"
        },
        {
          "internalType": "string",
          "name": "_date",
          "type": "string"
        },
        {
          "internalType": "string",
          "name": "_status",
          "type": "string"
        },
        {
          "internalType": "string",
          "name": "_rejectionReason",
          "type": "string"
        }
      ],
      "name": "createReport",
      "outputs": [
        {
          "internalType": "uint256",
          "name": "",
          "type": "uint256"
        }
      ],
      "stateMutability": "nonpayable",
      "type": "function"
    },
    {
      "inputs": [],
      "name": "getReports",
      "outputs": [
        {
          "components": [
            {
              "internalType": "address",
              "name": "finder",
              "type": "address"
            },
            {
              "internalType": "string",
              "name": "category",
              "type": "string"
            },
            {
              "internalType": "string",
              "name": "title",
              "type": "string"
            },
            {
              "internalType": "string",
              "name": "targetName",
              "type": "string"
            },
            {
              "internalType": "string",
              "name": "targetAge",
              "type": "string"
            },
            {
              "internalType": "string",
              "name": "description",
              "type": "string"
            },
            {
              "internalType": "string",
              "name": "evidence",
              "type": "string"
            },
            {
              "internalType": "string",
              "name": "date",
              "type": "string"
            },
            {
              "internalType": "address[]",
              "name": "seeker",
              "type": "address[]"
            },
            {
              "internalType": "string",
              "name": "status",
              "type": "string"
            },
            {
              "internalType": "string",
              "name": "rejectionReason",
              "type": "string"
            }
          ],
          "internalType": "struct Incentive.Report[]",
          "name": "",
          "type": "tuple[]"
        }
      ],
      "stateMutability": "view",
      "type": "function"
    },
    {
      "inputs": [],
      "name": "numberOfReports",
      "outputs": [
        {
          "internalType": "uint256",
          "name": "",
          "type": "uint256"
        }
      ],
      "stateMutability": "view",
      "type": "function"
    },
    {
      "inputs": [
        {
          "internalType": "uint256",
          "name": "reportId",
          "type": "uint256"
        },
        {
          "internalType": "string",
          "name": "reason",
          "type": "string"
        }
      ],
      "name": "rejectReport",
      "outputs": [],
      "stateMutability": "nonpayable",
      "type": "function"
    },
    {
      "inputs": [
        {
          "internalType": "uint256",
          "name": "",
          "type": "uint256"
        }
      ],
      "name": "reports",
      "outputs": [
        {
          "internalType": "address",
          "name": "finder",
          "type": "address"
        },
        {
          "internalType": "string",
          "name": "category",
          "type": "string"
        },
        {
          "internalType": "string",
          "name": "title",
          "type": "string"
        },
        {
          "internalType": "string",
          "name": "targetName",
          "type": "string"
        },
        {
          "internalType": "string",
          "name": "targetAge",
          "type": "string"
        },
        {
          "internalType": "string",
          "name": "description",
          "type": "string"
        },
        {
          "internalType": "string",
          "name": "evidence",
          "type": "string"
        },
        {
          "internalType": "string",
          "name": "date",
          "type": "string"
        },
        {
          "internalType": "string",
          "name": "status",
          "type": "string"
        },
        {
          "internalType": "string",
          "name": "rejectionReason",
          "type": "string"
        }
      ],
      "stateMutability": "view",
      "type": "function"
    },
    {
      "inputs": [
        {
          "internalType": "uint256",
          "name": "reportId",
          "type": "uint256"
        },
        {
          "internalType": "address",
          "name": "to",
          "type": "address"
        }
      ],
      "name": "send",
      "outputs": [],
      "stateMutability": "payable",
      "type": "function"
    }
  ],
  "bytecode": "0x608060405260006001553480156200001657600080fd5b506040516200220e3803806200220e83398181016040528101906200003c9190620000ee565b80600260006101000a81548173ffffffffffffffffffffffffffffffffffffffff021916908373ffffffffffffffffffffffffffffffffffffffff1602179055505062000120565b600080fd5b600073ffffffffffffffffffffffffffffffffffffffff82169050919050565b6000620000b68262000089565b9050919050565b620000c881620000a9565b8114620000d457600080fd5b50565b600081519050620000e881620000bd565b92915050565b60006020828403121562000107576200010662000084565b5b60006200011784828501620000d7565b91505092915050565b6120de80620001306000396000f3fe6080604052600436106100555760003560e01c80630f3a25701461005a5780632d460089146100835780635fd62a57146100ae578063785d04f5146100eb578063a3c86daf14610107578063c942adf714610132575b600080fd5b34801561006657600080fd5b50610081600480360381019061007c919061139c565b610178565b005b34801561008f57600080fd5b506100986101ec565b6040516100a59190611407565b60405180910390f35b3480156100ba57600080fd5b506100d560048036038101906100d09190611480565b6101f2565b6040516100e29190611407565b60405180910390f35b6101056004803603810190610100919061165b565b610491565b005b34801561011357600080fd5b5061011c61059a565b60405161012991906119c8565b60405180910390f35b34801561013e57600080fd5b50610159600480360381019061015491906119ea565b610c60565b60405161016f9a99989796959493929190611a70565b60405180910390f35b600080600084815260200190815260200160002090506040518060400160405280600881526020017f72656a65637465640000000000000000000000000000000000000000000000008152508160090190816101d49190611d57565b508181600a0190816101e69190611d57565b50505050565b60015481565b6000600260009054906101000a900473ffffffffffffffffffffffffffffffffffffffff1673ffffffffffffffffffffffffffffffffffffffff1663dfd8bcb4866040518263ffffffff1660e01b815260040161024f9190611e29565b602060405180830381865afa15801561026c573d6000803e3d6000fd5b505050506040513d601f19601f820116820180604052508101906102909190611e83565b156102d0576040517f08c379a00000000000000000000000000000000000000000000000000000000081526004016102c790611efc565b60405180910390fd5b600260009054906101000a900473ffffffffffffffffffffffffffffffffffffffff1673ffffffffffffffffffffffffffffffffffffffff166351a94a5f866040518263ffffffff1660e01b815260040161032b9190611e29565b600060405180830381600087803b15801561034557600080fd5b505af1158015610359573d6000803e3d6000fd5b505050506000806000600154815260200190815260200160002090508b8160000160006101000a81548173ffffffffffffffffffffffffffffffffffffffff021916908373ffffffffffffffffffffffffffffffffffffffff1602179055508a8160010190816103c99190611d57565b50898160020190816103db9190611d57565b50888160030190816103ed9190611d57565b50878160040190816103ff9190611d57565b50868160050190816104119190611d57565b50858160060190816104239190611d57565b50848160070190816104359190611d57565b50838160090190816104479190611d57565b508281600a0190816104599190611d57565b506001600081548092919061046d90611f4b565b9190505550600180546104809190611f93565b9150509a9950505050505050505050565b60008173ffffffffffffffffffffffffffffffffffffffff16346040516104b790611ff8565b60006040518083038185875af1925050503d80600081146104f4576040519150601f19603f3d011682016040523d82523d6000602084013e6104f9565b606091505b505090508061053d576040517f08c379a000000000000000000000000000000000000000000000000000000000815260040161053490612059565b60405180910390fd5b6040518060400160405280600881526020017f616363657074656400000000000000000000000000000000000000000000000081525060008085815260200190815260200160002060090190816105949190611d57565b50505050565b6060600060015467ffffffffffffffff8111156105ba576105b9611271565b5b6040519080825280602002602001820160405280156105f357816020015b6105e061119c565b8152602001906001900390816105d85790505b50905060005b600154811015610c5857600080828152602001908152602001600020604051806101600160405290816000820160009054906101000a900473ffffffffffffffffffffffffffffffffffffffff1673ffffffffffffffffffffffffffffffffffffffff1673ffffffffffffffffffffffffffffffffffffffff16815260200160018201805461068790611b7a565b80601f01602080910402602001604051908101604052809291908181526020018280546106b390611b7a565b80156107005780601f106106d557610100808354040283529160200191610700565b820191906000526020600020905b8154815290600101906020018083116106e357829003601f168201915b5050505050815260200160028201805461071990611b7a565b80601f016020809104026020016040519081016040528092919081815260200182805461074590611b7a565b80156107925780601f1061076757610100808354040283529160200191610792565b820191906000526020600020905b81548152906001019060200180831161077557829003601f168201915b505050505081526020016003820180546107ab90611b7a565b80601f01602080910402602001604051908101604052809291908181526020018280546107d790611b7a565b80156108245780601f106107f957610100808354040283529160200191610824565b820191906000526020600020905b81548152906001019060200180831161080757829003601f168201915b5050505050815260200160048201805461083d90611b7a565b80601f016020809104026020016040519081016040528092919081815260200182805461086990611b7a565b80156108b65780601f1061088b576101008083540402835291602001916108b6565b820191906000526020600020905b81548152906001019060200180831161089957829003601f168201915b505050505081526020016005820180546108cf90611b7a565b80601f01602080910402602001604051908101604052809291908181526020018280546108fb90611b7a565b80156109485780601f1061091d57610100808354040283529160200191610948565b820191906000526020600020905b81548152906001019060200180831161092b57829003601f168201915b5050505050815260200160068201805461096190611b7a565b80601f016020809104026020016040519081016040528092919081815260200182805461098d90611b7a565b80156109da5780601f106109af576101008083540402835291602001916109da565b820191906000526020600020905b8154815290600101906020018083116109bd57829003601f168201915b505050505081526020016007820180546109f390611b7a565b80601f0160208091040260200160405190810160405280929190818152602001828054610a1f90611b7a565b8015610a6c5780601f10610a4157610100808354040283529160200191610a6c565b820191906000526020600020905b815481529060010190602001808311610a4f57829003601f168201915b5050505050815260200160088201805480602002602001604051908101604052809291908181526020018280548015610afa57602002820191906000526020600020905b8160009054906101000a900473ffffffffffffffffffffffffffffffffffffffff1673ffffffffffffffffffffffffffffffffffffffff1681526020019060010190808311610ab0575b50505050508152602001600982018054610b1390611b7a565b80601f0160208091040260200160405190810160405280929190818152602001828054610b3f90611b7a565b8015610b8c5780601f10610b6157610100808354040283529160200191610b8c565b820191906000526020600020905b815481529060010190602001808311610b6f57829003601f168201915b50505050508152602001600a82018054610ba590611b7a565b80601f0160208091040260200160405190810160405280929190818152602001828054610bd190611b7a565b8015610c1e5780601f10610bf357610100808354040283529160200191610c1e565b820191906000526020600020905b815481529060010190602001808311610c0157829003601f168201915b505050505081525050828281518110610c3a57610c39612079565b5b60200260200101819052508080610c5090611f4b565b9150506105f9565b508091505090565b60006020528060005260406000206000915090508060000160009054906101000a900473ffffffffffffffffffffffffffffffffffffffff1690806001018054610ca990611b7a565b80601f0160208091040260200160405190810160405280929190818152602001828054610cd590611b7a565b8015610d225780601f10610cf757610100808354040283529160200191610d22565b820191906000526020600020905b815481529060010190602001808311610d0557829003601f168201915b505050505090806002018054610d3790611b7a565b80601f0160208091040260200160405190810160405280929190818152602001828054610d6390611b7a565b8015610db05780601f10610d8557610100808354040283529160200191610db0565b820191906000526020600020905b815481529060010190602001808311610d9357829003601f168201915b505050505090806003018054610dc590611b7a565b80601f0160208091040260200160405190810160405280929190818152602001828054610df190611b7a565b8015610e3e5780601f10610e1357610100808354040283529160200191610e3e565b820191906000526020600020905b815481529060010190602001808311610e2157829003601f168201915b505050505090806004018054610e5390611b7a565b80601f0160208091040260200160405190810160405280929190818152602001828054610e7f90611b7a565b8015610ecc5780601f10610ea157610100808354040283529160200191610ecc565b820191906000526020600020905b815481529060010190602001808311610eaf57829003601f168201915b505050505090806005018054610ee190611b7a565b80601f0160208091040260200160405190810160405280929190818152602001828054610f0d90611b7a565b8015610f5a5780601f10610f2f57610100808354040283529160200191610f5a565b820191906000526020600020905b815481529060010190602001808311610f3d57829003601f168201915b505050505090806006018054610f6f90611b7a565b80601f0160208091040260200160405190810160405280929190818152602001828054610f9b90611b7a565b8015610fe85780601f10610fbd57610100808354040283529160200191610fe8565b820191906000526020600020905b815481529060010190602001808311610fcb57829003601f168201915b505050505090806007018054610ffd90611b7a565b80601f016020809104026020016040519081016040528092919081815260200182805461102990611b7a565b80156110765780601f1061104b57610100808354040283529160200191611076565b820191906000526020600020905b81548152906001019060200180831161105957829003601f168201915b50505050509080600901805461108b90611b7a565b80601f01602080910402602001604051908101604052809291908181526020018280546110b790611b7a565b80156111045780601f106110d957610100808354040283529160200191611104565b820191906000526020600020905b8154815290600101906020018083116110e757829003601f168201915b50505050509080600a01805461111990611b7a565b80601f016020809104026020016040519081016040528092919081815260200182805461114590611b7a565b80156111925780601f1061116757610100808354040283529160200191611192565b820191906000526020600020905b81548152906001019060200180831161117557829003601f168201915b505050505090508a565b604051806101600160405280600073ffffffffffffffffffffffffffffffffffffffff168152602001606081526020016060815260200160608152602001606081526020016060815260200160608152602001606081526020016060815260200160608152602001606081525090565b6000604051905090565b600080fd5b600080fd5b6000819050919050565b61123381611220565b811461123e57600080fd5b50565b6000813590506112508161122a565b92915050565b600080fd5b600080fd5b6000601f19601f8301169050919050565b7f4e487b7100000000000000000000000000000000000000000000000000000000600052604160045260246000fd5b6112a982611260565b810181811067ffffffffffffffff821117156112c8576112c7611271565b5b80604052505050565b60006112db61120c565b90506112e782826112a0565b919050565b600067ffffffffffffffff82111561130757611306611271565b5b61131082611260565b9050602081019050919050565b82818337600083830152505050565b600061133f61133a846112ec565b6112d1565b90508281526020810184848401111561135b5761135a61125b565b5b61136684828561131d565b509392505050565b600082601f83011261138357611382611256565b5b813561139384826020860161132c565b91505092915050565b600080604083850312156113b3576113b2611216565b5b60006113c185828601611241565b925050602083013567ffffffffffffffff8111156113e2576113e161121b565b5b6113ee8582860161136e565b9150509250929050565b61140181611220565b82525050565b600060208201905061141c60008301846113f8565b92915050565b600073ffffffffffffffffffffffffffffffffffffffff82169050919050565b600061144d82611422565b9050919050565b61145d81611442565b811461146857600080fd5b50565b60008135905061147a81611454565b92915050565b6000806000806000806000806000806101408b8d0312156114a4576114a3611216565b5b60006114b28d828e0161146b565b9a505060208b013567ffffffffffffffff8111156114d3576114d261121b565b5b6114df8d828e0161136e565b99505060408b013567ffffffffffffffff811115611500576114ff61121b565b5b61150c8d828e0161136e565b98505060608b013567ffffffffffffffff81111561152d5761152c61121b565b5b6115398d828e0161136e565b97505060808b013567ffffffffffffffff81111561155a5761155961121b565b5b6115668d828e0161136e565b96505060a08b013567ffffffffffffffff8111156115875761158661121b565b5b6115938d828e0161136e565b95505060c08b013567ffffffffffffffff8111156115b4576115b361121b565b5b6115c08d828e0161136e565b94505060e08b013567ffffffffffffffff8111156115e1576115e061121b565b5b6115ed8d828e0161136e565b9350506101008b013567ffffffffffffffff81111561160f5761160e61121b565b5b61161b8d828e0161136e565b9250506101208b013567ffffffffffffffff81111561163d5761163c61121b565b5b6116498d828e0161136e565b9150509295989b9194979a5092959850565b6000806040838503121561167257611671611216565b5b600061168085828601611241565b92505060206116918582860161146b565b9150509250929050565b600081519050919050565b600082825260208201905092915050565b6000819050602082019050919050565b6116d081611442565b82525050565b600081519050919050565b600082825260208201905092915050565b60005b838110156117105780820151818401526020810190506116f5565b60008484015250505050565b6000611727826116d6565b61173181856116e1565b93506117418185602086016116f2565b61174a81611260565b840191505092915050565b600081519050919050565b600082825260208201905092915050565b6000819050602082019050919050565b600061178d83836116c7565b60208301905092915050565b6000602082019050919050565b60006117b182611755565b6117bb8185611760565b93506117c683611771565b8060005b838110156117f75781516117de8882611781565b97506117e983611799565b9250506001810190506117ca565b5085935050505092915050565b60006101608301600083015161181d60008601826116c7565b5060208301518482036020860152611835828261171c565b9150506040830151848203604086015261184f828261171c565b91505060608301518482036060860152611869828261171c565b91505060808301518482036080860152611883828261171c565b91505060a083015184820360a086015261189d828261171c565b91505060c083015184820360c08601526118b7828261171c565b91505060e083015184820360e08601526118d1828261171c565b9150506101008301518482036101008601526118ed82826117a6565b915050610120830151848203610120860152611909828261171c565b915050610140830151848203610140860152611925828261171c565b9150508091505092915050565b600061193e8383611804565b905092915050565b6000602082019050919050565b600061195e8261169b565b61196881856116a6565b93508360208202850161197a856116b7565b8060005b858110156119b657848403895281516119978582611932565b94506119a283611946565b925060208a0199505060018101905061197e565b50829750879550505050505092915050565b600060208201905081810360008301526119e28184611953565b905092915050565b600060208284031215611a00576119ff611216565b5b6000611a0e84828501611241565b91505092915050565b611a2081611442565b82525050565b600082825260208201905092915050565b6000611a42826116d6565b611a4c8185611a26565b9350611a5c8185602086016116f2565b611a6581611260565b840191505092915050565b600061014082019050611a86600083018d611a17565b8181036020830152611a98818c611a37565b90508181036040830152611aac818b611a37565b90508181036060830152611ac0818a611a37565b90508181036080830152611ad48189611a37565b905081810360a0830152611ae88188611a37565b905081810360c0830152611afc8187611a37565b905081810360e0830152611b108186611a37565b9050818103610100830152611b258185611a37565b9050818103610120830152611b3a8184611a37565b90509b9a5050505050505050505050565b7f4e487b7100000000000000000000000000000000000000000000000000000000600052602260045260246000fd5b60006002820490506001821680611b9257607f821691505b602082108103611ba557611ba4611b4b565b5b50919050565b60008190508160005260206000209050919050565b60006020601f8301049050919050565b600082821b905092915050565b600060088302611c0d7fffffffffffffffffffffffffffffffffffffffffffffffffffffffffffffffff82611bd0565b611c178683611bd0565b95508019841693508086168417925050509392505050565b6000819050919050565b6000611c54611c4f611c4a84611220565b611c2f565b611220565b9050919050565b6000819050919050565b611c6e83611c39565b611c82611c7a82611c5b565b848454611bdd565b825550505050565b600090565b611c97611c8a565b611ca2818484611c65565b505050565b5b81811015611cc657611cbb600082611c8f565b600181019050611ca8565b5050565b601f821115611d0b57611cdc81611bab565b611ce584611bc0565b81016020851015611cf4578190505b611d08611d0085611bc0565b830182611ca7565b50505b505050565b600082821c905092915050565b6000611d2e60001984600802611d10565b1980831691505092915050565b6000611d478383611d1d565b9150826002028217905092915050565b611d60826116d6565b67ffffffffffffffff811115611d7957611d78611271565b5b611d838254611b7a565b611d8e828285611cca565b600060209050601f831160018114611dc15760008415611daf578287015190505b611db98582611d3b565b865550611e21565b601f198416611dcf86611bab565b60005b82811015611df757848901518255600182019150602085019450602081019050611dd2565b86831015611e145784890151611e10601f891682611d1d565b8355505b6001600288020188555050505b505050505050565b60006020820190508181036000830152611e438184611a37565b905092915050565b60008115159050919050565b611e6081611e4b565b8114611e6b57600080fd5b50565b600081519050611e7d81611e57565b92915050565b600060208284031215611e9957611e98611216565b5b6000611ea784828501611e6e565b91505092915050565b7f45766964656e636520616c726561647920657869737473000000000000000000600082015250565b6000611ee6601783611a26565b9150611ef182611eb0565b602082019050919050565b60006020820190508181036000830152611f1581611ed9565b9050919050565b7f4e487b7100000000000000000000000000000000000000000000000000000000600052601160045260246000fd5b6000611f5682611220565b91507fffffffffffffffffffffffffffffffffffffffffffffffffffffffffffffffff8203611f8857611f87611f1c565b5b600182019050919050565b6000611f9e82611220565b9150611fa983611220565b9250828203905081811115611fc157611fc0611f1c565b5b92915050565b600081905092915050565b50565b6000611fe2600083611fc7565b9150611fed82611fd2565b600082019050919050565b600061200382611fd5565b9150819050919050565b7f4661696c656420746f2073656e64204554480000000000000000000000000000600082015250565b6000612043601283611a26565b915061204e8261200d565b602082019050919050565b6000602082019050818103600083015261207281612036565b9050919050565b7f4e487b7100000000000000000000000000000000000000000000000000000000600052603260045260246000fdfea26469706673582212200f956b83efeb6424721f3fd392031cad024c72d35d9e257d5a0e45a75bf2291e64736f6c63430008120033",
  "linkReferences": {},
  "deployedLinkReferences": {}
}