{
  "_format": "hh-sol-artifact-1",
  "contractName": "Incentive",
  "sourceName": "contracts/Incentive.sol",
  "abi": [
    {
      "inputs": [
        {
          "internalType": "address",
          "name": "_finder",
          "type": "address"
        },
        {
          "internalType": "string",
          "name": "_title",
          "type": "string"
        },
        {
          "internalType": "string",
          "name": "_targetName",
          "type": "string"
        },
        {
          "internalType": "string",
          "name": "_targetAge",
          "type": "string"
        },
        {
          "internalType": "string",
          "name": "_description",
          "type": "string"
        },
        {
          "internalType": "string",
          "name": "_evidence",
          "type": "string"
        },
        {
          "internalType": "string",
          "name": "_date",
          "type": "string"
        }
      ],
      "name": "createReport",
      "outputs": [
        {
          "internalType": "uint256",
          "name": "",
          "type": "uint256"
        }
      ],
      "stateMutability": "nonpayable",
      "type": "function"
    },
    {
      "inputs": [],
      "name": "getReports",
      "outputs": [
        {
          "components": [
            {
              "internalType": "address",
              "name": "finder",
              "type": "address"
            },
            {
              "internalType": "string",
              "name": "title",
              "type": "string"
            },
            {
              "internalType": "string",
              "name": "targetName",
              "type": "string"
            },
            {
              "internalType": "string",
              "name": "targetAge",
              "type": "string"
            },
            {
              "internalType": "string",
              "name": "description",
              "type": "string"
            },
            {
              "internalType": "string",
              "name": "evidence",
              "type": "string"
            },
            {
              "internalType": "string",
              "name": "date",
              "type": "string"
            },
            {
              "internalType": "address[]",
              "name": "seeker",
              "type": "address[]"
            }
          ],
          "internalType": "struct Incentive.Report[]",
          "name": "",
          "type": "tuple[]"
        }
      ],
      "stateMutability": "view",
      "type": "function"
    },
    {
      "inputs": [],
      "name": "numberOfReports",
      "outputs": [
        {
          "internalType": "uint256",
          "name": "",
          "type": "uint256"
        }
      ],
      "stateMutability": "view",
      "type": "function"
    },
    {
      "inputs": [
        {
          "internalType": "uint256",
          "name": "",
          "type": "uint256"
        }
      ],
      "name": "reports",
      "outputs": [
        {
          "internalType": "address",
          "name": "finder",
          "type": "address"
        },
        {
          "internalType": "string",
          "name": "title",
          "type": "string"
        },
        {
          "internalType": "string",
          "name": "targetName",
          "type": "string"
        },
        {
          "internalType": "string",
          "name": "targetAge",
          "type": "string"
        },
        {
          "internalType": "string",
          "name": "description",
          "type": "string"
        },
        {
          "internalType": "string",
          "name": "evidence",
          "type": "string"
        },
        {
          "internalType": "string",
          "name": "date",
          "type": "string"
        }
      ],
      "stateMutability": "view",
      "type": "function"
    },
    {
      "inputs": [
        {
          "internalType": "address",
          "name": "to",
          "type": "address"
        }
      ],
      "name": "send",
      "outputs": [],
      "stateMutability": "payable",
      "type": "function"
    }
  ],
  "bytecode": "0x6080604052600060015534801561001557600080fd5b50611839806100256000396000f3fe60806040526004361061004a5760003560e01c80632d4600891461004f5780633e58c58c1461007a578063556fafdf14610096578063a3c86daf146100d3578063c942adf7146100fe575b600080fd5b34801561005b57600080fd5b50610064610141565b6040516100719190610c09565b60405180910390f35b610094600480360381019061008f9190610c96565b610147565b005b3480156100a257600080fd5b506100bd60048036038101906100b89190610e09565b6101f7565b6040516100ca9190610c09565b60405180910390f35b3480156100df57600080fd5b506100e86102f3565b6040516100f5919061122c565b60405180910390f35b34801561010a57600080fd5b506101256004803603810190610120919061127a565b610803565b6040516101389796959493929190611300565b60405180910390f35b60015481565b60008173ffffffffffffffffffffffffffffffffffffffff163460405161016d906113ca565b60006040518083038185875af1925050503d80600081146101aa576040519150601f19603f3d011682016040523d82523d6000602084013e6101af565b606091505b50509050806101f3576040517f08c379a00000000000000000000000000000000000000000000000000000000081526004016101ea9061142b565b60405180910390fd5b5050565b60008060008060015481526020019081526020016000209050888160000160006101000a81548173ffffffffffffffffffffffffffffffffffffffff021916908373ffffffffffffffffffffffffffffffffffffffff160217905550878160010190816102649190611657565b50868160020190816102769190611657565b50858160030190816102889190611657565b508481600401908161029a9190611657565b50838160050190816102ac9190611657565b50828160060190816102be9190611657565b50600160008154809291906102d290611758565b9190505550600180546102e591906117a0565b915050979650505050505050565b6060600060015467ffffffffffffffff81111561031357610312610cde565b5b60405190808252806020026020018201604052801561034c57816020015b610339610b95565b8152602001906001900390816103315790505b50905060005b6001548110156107fb57600080828152602001908152602001600020604051806101000160405290816000820160009054906101000a900473ffffffffffffffffffffffffffffffffffffffff1673ffffffffffffffffffffffffffffffffffffffff1673ffffffffffffffffffffffffffffffffffffffff1681526020016001820180546103e09061147a565b80601f016020809104026020016040519081016040528092919081815260200182805461040c9061147a565b80156104595780601f1061042e57610100808354040283529160200191610459565b820191906000526020600020905b81548152906001019060200180831161043c57829003601f168201915b505050505081526020016002820180546104729061147a565b80601f016020809104026020016040519081016040528092919081815260200182805461049e9061147a565b80156104eb5780601f106104c0576101008083540402835291602001916104eb565b820191906000526020600020905b8154815290600101906020018083116104ce57829003601f168201915b505050505081526020016003820180546105049061147a565b80601f01602080910402602001604051908101604052809291908181526020018280546105309061147a565b801561057d5780601f106105525761010080835404028352916020019161057d565b820191906000526020600020905b81548152906001019060200180831161056057829003601f168201915b505050505081526020016004820180546105969061147a565b80601f01602080910402602001604051908101604052809291908181526020018280546105c29061147a565b801561060f5780601f106105e45761010080835404028352916020019161060f565b820191906000526020600020905b8154815290600101906020018083116105f257829003601f168201915b505050505081526020016005820180546106289061147a565b80601f01602080910402602001604051908101604052809291908181526020018280546106549061147a565b80156106a15780601f10610676576101008083540402835291602001916106a1565b820191906000526020600020905b81548152906001019060200180831161068457829003601f168201915b505050505081526020016006820180546106ba9061147a565b80601f01602080910402602001604051908101604052809291908181526020018280546106e69061147a565b80156107335780601f1061070857610100808354040283529160200191610733565b820191906000526020600020905b81548152906001019060200180831161071657829003601f168201915b50505050508152602001600782018054806020026020016040519081016040528092919081815260200182805480156107c157602002820191906000526020600020905b8160009054906101000a900473ffffffffffffffffffffffffffffffffffffffff1673ffffffffffffffffffffffffffffffffffffffff1681526020019060010190808311610777575b5050505050815250508282815181106107dd576107dc6117d4565b5b602002602001018190525080806107f390611758565b915050610352565b508091505090565b60006020528060005260406000206000915090508060000160009054906101000a900473ffffffffffffffffffffffffffffffffffffffff169080600101805461084c9061147a565b80601f01602080910402602001604051908101604052809291908181526020018280546108789061147a565b80156108c55780601f1061089a576101008083540402835291602001916108c5565b820191906000526020600020905b8154815290600101906020018083116108a857829003601f168201915b5050505050908060020180546108da9061147a565b80601f01602080910402602001604051908101604052809291908181526020018280546109069061147a565b80156109535780601f1061092857610100808354040283529160200191610953565b820191906000526020600020905b81548152906001019060200180831161093657829003601f168201915b5050505050908060030180546109689061147a565b80601f01602080910402602001604051908101604052809291908181526020018280546109949061147a565b80156109e15780601f106109b6576101008083540402835291602001916109e1565b820191906000526020600020905b8154815290600101906020018083116109c457829003601f168201915b5050505050908060040180546109f69061147a565b80601f0160208091040260200160405190810160405280929190818152602001828054610a229061147a565b8015610a6f5780601f10610a4457610100808354040283529160200191610a6f565b820191906000526020600020905b815481529060010190602001808311610a5257829003601f168201915b505050505090806005018054610a849061147a565b80601f0160208091040260200160405190810160405280929190818152602001828054610ab09061147a565b8015610afd5780601f10610ad257610100808354040283529160200191610afd565b820191906000526020600020905b815481529060010190602001808311610ae057829003601f168201915b505050505090806006018054610b129061147a565b80601f0160208091040260200160405190810160405280929190818152602001828054610b3e9061147a565b8015610b8b5780601f10610b6057610100808354040283529160200191610b8b565b820191906000526020600020905b815481529060010190602001808311610b6e57829003601f168201915b5050505050905087565b604051806101000160405280600073ffffffffffffffffffffffffffffffffffffffff168152602001606081526020016060815260200160608152602001606081526020016060815260200160608152602001606081525090565b6000819050919050565b610c0381610bf0565b82525050565b6000602082019050610c1e6000830184610bfa565b92915050565b6000604051905090565b600080fd5b600080fd5b600073ffffffffffffffffffffffffffffffffffffffff82169050919050565b6000610c6382610c38565b9050919050565b610c7381610c58565b8114610c7e57600080fd5b50565b600081359050610c9081610c6a565b92915050565b600060208284031215610cac57610cab610c2e565b5b6000610cba84828501610c81565b91505092915050565b600080fd5b600080fd5b6000601f19601f8301169050919050565b7f4e487b7100000000000000000000000000000000000000000000000000000000600052604160045260246000fd5b610d1682610ccd565b810181811067ffffffffffffffff82111715610d3557610d34610cde565b5b80604052505050565b6000610d48610c24565b9050610d548282610d0d565b919050565b600067ffffffffffffffff821115610d7457610d73610cde565b5b610d7d82610ccd565b9050602081019050919050565b82818337600083830152505050565b6000610dac610da784610d59565b610d3e565b905082815260208101848484011115610dc857610dc7610cc8565b5b610dd3848285610d8a565b509392505050565b600082601f830112610df057610def610cc3565b5b8135610e00848260208601610d99565b91505092915050565b600080600080600080600060e0888a031215610e2857610e27610c2e565b5b6000610e368a828b01610c81565b975050602088013567ffffffffffffffff811115610e5757610e56610c33565b5b610e638a828b01610ddb565b965050604088013567ffffffffffffffff811115610e8457610e83610c33565b5b610e908a828b01610ddb565b955050606088013567ffffffffffffffff811115610eb157610eb0610c33565b5b610ebd8a828b01610ddb565b945050608088013567ffffffffffffffff811115610ede57610edd610c33565b5b610eea8a828b01610ddb565b93505060a088013567ffffffffffffffff811115610f0b57610f0a610c33565b5b610f178a828b01610ddb565b92505060c088013567ffffffffffffffff811115610f3857610f37610c33565b5b610f448a828b01610ddb565b91505092959891949750929550565b600081519050919050565b600082825260208201905092915050565b6000819050602082019050919050565b610f8881610c58565b82525050565b600081519050919050565b600082825260208201905092915050565b60005b83811015610fc8578082015181840152602081019050610fad565b60008484015250505050565b6000610fdf82610f8e565b610fe98185610f99565b9350610ff9818560208601610faa565b61100281610ccd565b840191505092915050565b600081519050919050565b600082825260208201905092915050565b6000819050602082019050919050565b60006110458383610f7f565b60208301905092915050565b6000602082019050919050565b60006110698261100d565b6110738185611018565b935061107e83611029565b8060005b838110156110af5781516110968882611039565b97506110a183611051565b925050600181019050611082565b5085935050505092915050565b6000610100830160008301516110d56000860182610f7f565b50602083015184820360208601526110ed8282610fd4565b915050604083015184820360408601526111078282610fd4565b915050606083015184820360608601526111218282610fd4565b9150506080830151848203608086015261113b8282610fd4565b91505060a083015184820360a08601526111558282610fd4565b91505060c083015184820360c086015261116f8282610fd4565b91505060e083015184820360e0860152611189828261105e565b9150508091505092915050565b60006111a283836110bc565b905092915050565b6000602082019050919050565b60006111c282610f53565b6111cc8185610f5e565b9350836020820285016111de85610f6f565b8060005b8581101561121a57848403895281516111fb8582611196565b9450611206836111aa565b925060208a019950506001810190506111e2565b50829750879550505050505092915050565b6000602082019050818103600083015261124681846111b7565b905092915050565b61125781610bf0565b811461126257600080fd5b50565b6000813590506112748161124e565b92915050565b6000602082840312156112905761128f610c2e565b5b600061129e84828501611265565b91505092915050565b6112b081610c58565b82525050565b600082825260208201905092915050565b60006112d282610f8e565b6112dc81856112b6565b93506112ec818560208601610faa565b6112f581610ccd565b840191505092915050565b600060e082019050611315600083018a6112a7565b818103602083015261132781896112c7565b9050818103604083015261133b81886112c7565b9050818103606083015261134f81876112c7565b9050818103608083015261136381866112c7565b905081810360a083015261137781856112c7565b905081810360c083015261138b81846112c7565b905098975050505050505050565b600081905092915050565b50565b60006113b4600083611399565b91506113bf826113a4565b600082019050919050565b60006113d5826113a7565b9150819050919050565b7f4661696c656420746f2073656e64204554480000000000000000000000000000600082015250565b60006114156012836112b6565b9150611420826113df565b602082019050919050565b6000602082019050818103600083015261144481611408565b9050919050565b7f4e487b7100000000000000000000000000000000000000000000000000000000600052602260045260246000fd5b6000600282049050600182168061149257607f821691505b6020821081036114a5576114a461144b565b5b50919050565b60008190508160005260206000209050919050565b60006020601f8301049050919050565b600082821b905092915050565b60006008830261150d7fffffffffffffffffffffffffffffffffffffffffffffffffffffffffffffffff826114d0565b61151786836114d0565b95508019841693508086168417925050509392505050565b6000819050919050565b600061155461154f61154a84610bf0565b61152f565b610bf0565b9050919050565b6000819050919050565b61156e83611539565b61158261157a8261155b565b8484546114dd565b825550505050565b600090565b61159761158a565b6115a2818484611565565b505050565b5b818110156115c6576115bb60008261158f565b6001810190506115a8565b5050565b601f82111561160b576115dc816114ab565b6115e5846114c0565b810160208510156115f4578190505b611608611600856114c0565b8301826115a7565b50505b505050565b600082821c905092915050565b600061162e60001984600802611610565b1980831691505092915050565b6000611647838361161d565b9150826002028217905092915050565b61166082610f8e565b67ffffffffffffffff81111561167957611678610cde565b5b611683825461147a565b61168e8282856115ca565b600060209050601f8311600181146116c157600084156116af578287015190505b6116b9858261163b565b865550611721565b601f1984166116cf866114ab565b60005b828110156116f7578489015182556001820191506020850194506020810190506116d2565b868310156117145784890151611710601f89168261161d565b8355505b6001600288020188555050505b505050505050565b7f4e487b7100000000000000000000000000000000000000000000000000000000600052601160045260246000fd5b600061176382610bf0565b91507fffffffffffffffffffffffffffffffffffffffffffffffffffffffffffffffff820361179557611794611729565b5b600182019050919050565b60006117ab82610bf0565b91506117b683610bf0565b92508282039050818111156117ce576117cd611729565b5b92915050565b7f4e487b7100000000000000000000000000000000000000000000000000000000600052603260045260246000fdfea26469706673582212202e0bd7d8a1a9cf295f041eb5ad43346750bae10bcc4393b6bc2384f3cc699ede64736f6c63430008120033",
  "linkReferences": {},
  "deployedLinkReferences": {}
}