{
  "_format": "hh-sol-artifact-1",
  "contractName": "Incentive",
  "sourceName": "contracts/Incentive.sol",
  "abi": [
    {
      "inputs": [
        {
          "internalType": "address",
          "name": "_finder",
          "type": "address"
        },
        {
          "internalType": "string",
          "name": "_title",
          "type": "string"
        },
        {
          "internalType": "string",
          "name": "_targetName",
          "type": "string"
        },
        {
          "internalType": "string",
          "name": "_targetAge",
          "type": "string"
        },
        {
          "internalType": "string",
          "name": "_description",
          "type": "string"
        },
        {
          "internalType": "string",
          "name": "_evidence",
          "type": "string"
        }
      ],
      "name": "createReport",
      "outputs": [
        {
          "internalType": "uint256",
          "name": "",
          "type": "uint256"
        }
      ],
      "stateMutability": "nonpayable",
      "type": "function"
    },
    {
      "inputs": [],
      "name": "getReports",
      "outputs": [
        {
          "components": [
            {
              "internalType": "address",
              "name": "finder",
              "type": "address"
            },
            {
              "internalType": "string",
              "name": "title",
              "type": "string"
            },
            {
              "internalType": "string",
              "name": "targetName",
              "type": "string"
            },
            {
              "internalType": "string",
              "name": "targetAge",
              "type": "string"
            },
            {
              "internalType": "string",
              "name": "description",
              "type": "string"
            },
            {
              "internalType": "string",
              "name": "evidence",
              "type": "string"
            },
            {
              "internalType": "address[]",
              "name": "seeker",
              "type": "address[]"
            }
          ],
          "internalType": "struct Incentive.Report[]",
          "name": "",
          "type": "tuple[]"
        }
      ],
      "stateMutability": "view",
      "type": "function"
    },
    {
      "inputs": [],
      "name": "numberOfReports",
      "outputs": [
        {
          "internalType": "uint256",
          "name": "",
          "type": "uint256"
        }
      ],
      "stateMutability": "view",
      "type": "function"
    },
    {
      "inputs": [
        {
          "internalType": "uint256",
          "name": "_id",
          "type": "uint256"
        }
      ],
      "name": "payToReport",
      "outputs": [],
      "stateMutability": "payable",
      "type": "function"
    },
    {
      "inputs": [
        {
          "internalType": "uint256",
          "name": "",
          "type": "uint256"
        }
      ],
      "name": "reports",
      "outputs": [
        {
          "internalType": "address",
          "name": "finder",
          "type": "address"
        },
        {
          "internalType": "string",
          "name": "title",
          "type": "string"
        },
        {
          "internalType": "string",
          "name": "targetName",
          "type": "string"
        },
        {
          "internalType": "string",
          "name": "targetAge",
          "type": "string"
        },
        {
          "internalType": "string",
          "name": "description",
          "type": "string"
        },
        {
          "internalType": "string",
          "name": "evidence",
          "type": "string"
        }
      ],
      "stateMutability": "view",
      "type": "function"
    }
  ],
  "bytecode": "0x6080604052600060015534801561001557600080fd5b50611714806100256000396000f3fe60806040526004361061004a5760003560e01c80632d4600891461004f57806389ce3e451461007a57806396675d34146100b7578063a3c86daf146100d3578063c942adf7146100fe575b600080fd5b34801561005b57600080fd5b50610064610140565b6040516100719190610b72565b60405180910390f35b34801561008657600080fd5b506100a1600480360381019061009c9190610d45565b610146565b6040516100ae9190610b72565b60405180910390f35b6100d160048036038101906100cc9190610e8a565b61022f565b005b3480156100df57600080fd5b506100e8610385565b6040516100f59190611175565b60405180910390f35b34801561010a57600080fd5b5061012560048036038101906101209190610e8a565b610802565b604051610137969594939291906111f0565b60405180910390f35b60015481565b60008060008060015481526020019081526020016000209050878160000160006101000a81548173ffffffffffffffffffffffffffffffffffffffff021916908373ffffffffffffffffffffffffffffffffffffffff160217905550868160010190816101b39190611480565b50858160020190816101c59190611480565b50848160030190816101d79190611480565b50838160040190816101e99190611480565b50828160050190816101fb9190611480565b506001600081548092919061020f90611581565b91905055506001805461022291906115c9565b9150509695505050505050565b60003490506000806000848152602001908152602001600020905080600601339080600181540180825580915050600190039060005260206000200160009091909190916101000a81548173ffffffffffffffffffffffffffffffffffffffff021916908373ffffffffffffffffffffffffffffffffffffffff16021790555060008160000160009054906101000a900473ffffffffffffffffffffffffffffffffffffffff1673ffffffffffffffffffffffffffffffffffffffff16836040516102f99061162e565b60006040518083038185875af1925050503d8060008114610336576040519150601f19603f3d011682016040523d82523d6000602084013e61033b565b606091505b505090508061037f576040517f08c379a00000000000000000000000000000000000000000000000000000000081526004016103769061168f565b60405180910390fd5b50505050565b6060600060015467ffffffffffffffff8111156103a5576103a4610c1a565b5b6040519080825280602002602001820160405280156103de57816020015b6103cb610b06565b8152602001906001900390816103c35790505b50905060005b6001548110156107fa576000808281526020019081526020016000206040518060e00160405290816000820160009054906101000a900473ffffffffffffffffffffffffffffffffffffffff1673ffffffffffffffffffffffffffffffffffffffff1673ffffffffffffffffffffffffffffffffffffffff168152602001600182018054610471906112a3565b80601f016020809104026020016040519081016040528092919081815260200182805461049d906112a3565b80156104ea5780601f106104bf576101008083540402835291602001916104ea565b820191906000526020600020905b8154815290600101906020018083116104cd57829003601f168201915b50505050508152602001600282018054610503906112a3565b80601f016020809104026020016040519081016040528092919081815260200182805461052f906112a3565b801561057c5780601f106105515761010080835404028352916020019161057c565b820191906000526020600020905b81548152906001019060200180831161055f57829003601f168201915b50505050508152602001600382018054610595906112a3565b80601f01602080910402602001604051908101604052809291908181526020018280546105c1906112a3565b801561060e5780601f106105e35761010080835404028352916020019161060e565b820191906000526020600020905b8154815290600101906020018083116105f157829003601f168201915b50505050508152602001600482018054610627906112a3565b80601f0160208091040260200160405190810160405280929190818152602001828054610653906112a3565b80156106a05780601f10610675576101008083540402835291602001916106a0565b820191906000526020600020905b81548152906001019060200180831161068357829003601f168201915b505050505081526020016005820180546106b9906112a3565b80601f01602080910402602001604051908101604052809291908181526020018280546106e5906112a3565b80156107325780601f1061070757610100808354040283529160200191610732565b820191906000526020600020905b81548152906001019060200180831161071557829003601f168201915b50505050508152602001600682018054806020026020016040519081016040528092919081815260200182805480156107c057602002820191906000526020600020905b8160009054906101000a900473ffffffffffffffffffffffffffffffffffffffff1673ffffffffffffffffffffffffffffffffffffffff1681526020019060010190808311610776575b5050505050815250508282815181106107dc576107db6116af565b5b602002602001018190525080806107f290611581565b9150506103e4565b508091505090565b60006020528060005260406000206000915090508060000160009054906101000a900473ffffffffffffffffffffffffffffffffffffffff169080600101805461084b906112a3565b80601f0160208091040260200160405190810160405280929190818152602001828054610877906112a3565b80156108c45780601f10610899576101008083540402835291602001916108c4565b820191906000526020600020905b8154815290600101906020018083116108a757829003601f168201915b5050505050908060020180546108d9906112a3565b80601f0160208091040260200160405190810160405280929190818152602001828054610905906112a3565b80156109525780601f1061092757610100808354040283529160200191610952565b820191906000526020600020905b81548152906001019060200180831161093557829003601f168201915b505050505090806003018054610967906112a3565b80601f0160208091040260200160405190810160405280929190818152602001828054610993906112a3565b80156109e05780601f106109b5576101008083540402835291602001916109e0565b820191906000526020600020905b8154815290600101906020018083116109c357829003601f168201915b5050505050908060040180546109f5906112a3565b80601f0160208091040260200160405190810160405280929190818152602001828054610a21906112a3565b8015610a6e5780601f10610a4357610100808354040283529160200191610a6e565b820191906000526020600020905b815481529060010190602001808311610a5157829003601f168201915b505050505090806005018054610a83906112a3565b80601f0160208091040260200160405190810160405280929190818152602001828054610aaf906112a3565b8015610afc5780601f10610ad157610100808354040283529160200191610afc565b820191906000526020600020905b815481529060010190602001808311610adf57829003601f168201915b5050505050905086565b6040518060e00160405280600073ffffffffffffffffffffffffffffffffffffffff1681526020016060815260200160608152602001606081526020016060815260200160608152602001606081525090565b6000819050919050565b610b6c81610b59565b82525050565b6000602082019050610b876000830184610b63565b92915050565b6000604051905090565b600080fd5b600080fd5b600073ffffffffffffffffffffffffffffffffffffffff82169050919050565b6000610bcc82610ba1565b9050919050565b610bdc81610bc1565b8114610be757600080fd5b50565b600081359050610bf981610bd3565b92915050565b600080fd5b600080fd5b6000601f19601f8301169050919050565b7f4e487b7100000000000000000000000000000000000000000000000000000000600052604160045260246000fd5b610c5282610c09565b810181811067ffffffffffffffff82111715610c7157610c70610c1a565b5b80604052505050565b6000610c84610b8d565b9050610c908282610c49565b919050565b600067ffffffffffffffff821115610cb057610caf610c1a565b5b610cb982610c09565b9050602081019050919050565b82818337600083830152505050565b6000610ce8610ce384610c95565b610c7a565b905082815260208101848484011115610d0457610d03610c04565b5b610d0f848285610cc6565b509392505050565b600082601f830112610d2c57610d2b610bff565b5b8135610d3c848260208601610cd5565b91505092915050565b60008060008060008060c08789031215610d6257610d61610b97565b5b6000610d7089828a01610bea565b965050602087013567ffffffffffffffff811115610d9157610d90610b9c565b5b610d9d89828a01610d17565b955050604087013567ffffffffffffffff811115610dbe57610dbd610b9c565b5b610dca89828a01610d17565b945050606087013567ffffffffffffffff811115610deb57610dea610b9c565b5b610df789828a01610d17565b935050608087013567ffffffffffffffff811115610e1857610e17610b9c565b5b610e2489828a01610d17565b92505060a087013567ffffffffffffffff811115610e4557610e44610b9c565b5b610e5189828a01610d17565b9150509295509295509295565b610e6781610b59565b8114610e7257600080fd5b50565b600081359050610e8481610e5e565b92915050565b600060208284031215610ea057610e9f610b97565b5b6000610eae84828501610e75565b91505092915050565b600081519050919050565b600082825260208201905092915050565b6000819050602082019050919050565b610eec81610bc1565b82525050565b600081519050919050565b600082825260208201905092915050565b60005b83811015610f2c578082015181840152602081019050610f11565b60008484015250505050565b6000610f4382610ef2565b610f4d8185610efd565b9350610f5d818560208601610f0e565b610f6681610c09565b840191505092915050565b600081519050919050565b600082825260208201905092915050565b6000819050602082019050919050565b6000610fa98383610ee3565b60208301905092915050565b6000602082019050919050565b6000610fcd82610f71565b610fd78185610f7c565b9350610fe283610f8d565b8060005b83811015611013578151610ffa8882610f9d565b975061100583610fb5565b925050600181019050610fe6565b5085935050505092915050565b600060e0830160008301516110386000860182610ee3565b50602083015184820360208601526110508282610f38565b9150506040830151848203604086015261106a8282610f38565b915050606083015184820360608601526110848282610f38565b9150506080830151848203608086015261109e8282610f38565b91505060a083015184820360a08601526110b88282610f38565b91505060c083015184820360c08601526110d28282610fc2565b9150508091505092915050565b60006110eb8383611020565b905092915050565b6000602082019050919050565b600061110b82610eb7565b6111158185610ec2565b93508360208202850161112785610ed3565b8060005b85811015611163578484038952815161114485826110df565b945061114f836110f3565b925060208a0199505060018101905061112b565b50829750879550505050505092915050565b6000602082019050818103600083015261118f8184611100565b905092915050565b6111a081610bc1565b82525050565b600082825260208201905092915050565b60006111c282610ef2565b6111cc81856111a6565b93506111dc818560208601610f0e565b6111e581610c09565b840191505092915050565b600060c0820190506112056000830189611197565b818103602083015261121781886111b7565b9050818103604083015261122b81876111b7565b9050818103606083015261123f81866111b7565b9050818103608083015261125381856111b7565b905081810360a083015261126781846111b7565b9050979650505050505050565b7f4e487b7100000000000000000000000000000000000000000000000000000000600052602260045260246000fd5b600060028204905060018216806112bb57607f821691505b6020821081036112ce576112cd611274565b5b50919050565b60008190508160005260206000209050919050565b60006020601f8301049050919050565b600082821b905092915050565b6000600883026113367fffffffffffffffffffffffffffffffffffffffffffffffffffffffffffffffff826112f9565b61134086836112f9565b95508019841693508086168417925050509392505050565b6000819050919050565b600061137d61137861137384610b59565b611358565b610b59565b9050919050565b6000819050919050565b61139783611362565b6113ab6113a382611384565b848454611306565b825550505050565b600090565b6113c06113b3565b6113cb81848461138e565b505050565b5b818110156113ef576113e46000826113b8565b6001810190506113d1565b5050565b601f82111561143457611405816112d4565b61140e846112e9565b8101602085101561141d578190505b611431611429856112e9565b8301826113d0565b50505b505050565b600082821c905092915050565b600061145760001984600802611439565b1980831691505092915050565b60006114708383611446565b9150826002028217905092915050565b61148982610ef2565b67ffffffffffffffff8111156114a2576114a1610c1a565b5b6114ac82546112a3565b6114b78282856113f3565b600060209050601f8311600181146114ea57600084156114d8578287015190505b6114e28582611464565b86555061154a565b601f1984166114f8866112d4565b60005b82811015611520578489015182556001820191506020850194506020810190506114fb565b8683101561153d5784890151611539601f891682611446565b8355505b6001600288020188555050505b505050505050565b7f4e487b7100000000000000000000000000000000000000000000000000000000600052601160045260246000fd5b600061158c82610b59565b91507fffffffffffffffffffffffffffffffffffffffffffffffffffffffffffffffff82036115be576115bd611552565b5b600182019050919050565b60006115d482610b59565b91506115df83610b59565b92508282039050818111156115f7576115f6611552565b5b92915050565b600081905092915050565b50565b60006116186000836115fd565b915061162382611608565b600082019050919050565b60006116398261160b565b9150819050919050565b7f5061796d656e74206661696c6564000000000000000000000000000000000000600082015250565b6000611679600e836111a6565b915061168482611643565b602082019050919050565b600060208201905081810360008301526116a88161166c565b9050919050565b7f4e487b7100000000000000000000000000000000000000000000000000000000600052603260045260246000fdfea264697066735822122018461537bb58fc7a88367203166c42170aff9848263b8934e028d1e4ac54bebc64736f6c63430008120033",
  "linkReferences": {},
  "deployedLinkReferences": {}
}