{
  "_format": "hh-sol-artifact-1",
  "contractName": "Verifier",
  "sourceName": "contracts/Verifier.sol",
  "abi": [
    {
      "inputs": [
        {
          "internalType": "string",
          "name": "_evidence",
          "type": "string"
        }
      ],
      "name": "checkEvidenceExists",
      "outputs": [
        {
          "internalType": "bool",
          "name": "",
          "type": "bool"
        }
      ],
      "stateMutability": "view",
      "type": "function"
    }
  ],
  "bytecode": "0x608060405234801561001057600080fd5b5061034b806100206000396000f3fe608060405234801561001057600080fd5b506004361061002b5760003560e01c8063dfd8bcb414610030575b600080fd5b61004a6004803603810190610045919061020e565b610060565b6040516100579190610272565b60405180910390f35b6000808260405160200161007491906102fe565b60405160208183030381529060405280519060200120905060008082815260200190815260200160002060009054906101000a900460ff16915050919050565b6000604051905090565b600080fd5b600080fd5b600080fd5b600080fd5b6000601f19601f8301169050919050565b7f4e487b7100000000000000000000000000000000000000000000000000000000600052604160045260246000fd5b61011b826100d2565b810181811067ffffffffffffffff8211171561013a576101396100e3565b5b80604052505050565b600061014d6100b4565b90506101598282610112565b919050565b600067ffffffffffffffff821115610179576101786100e3565b5b610182826100d2565b9050602081019050919050565b82818337600083830152505050565b60006101b16101ac8461015e565b610143565b9050828152602081018484840111156101cd576101cc6100cd565b5b6101d884828561018f565b509392505050565b600082601f8301126101f5576101f46100c8565b5b813561020584826020860161019e565b91505092915050565b600060208284031215610224576102236100be565b5b600082013567ffffffffffffffff811115610242576102416100c3565b5b61024e848285016101e0565b91505092915050565b60008115159050919050565b61026c81610257565b82525050565b60006020820190506102876000830184610263565b92915050565b600081519050919050565b600081905092915050565b60005b838110156102c15780820151818401526020810190506102a6565b60008484015250505050565b60006102d88261028d565b6102e28185610298565b93506102f28185602086016102a3565b80840191505092915050565b600061030a82846102cd565b91508190509291505056fea2646970667358221220006a73b0ffa2a502180cfa5036d00ced70a3239594018799e427577743dac8fe64736f6c63430008120033",
  "linkReferences": {},
  "deployedLinkReferences": {}
}