{
  "_format": "hh-sol-artifact-1",
  "contractName": "Verifier",
  "sourceName": "contracts/Verifier.sol",
  "abi": [
    {
      "inputs": [
        {
          "internalType": "string",
          "name": "_evidence",
          "type": "string"
        }
      ],
      "name": "addEvidence",
      "outputs": [],
      "stateMutability": "nonpayable",
      "type": "function"
    },
    {
      "inputs": [
        {
          "internalType": "string",
          "name": "_evidence",
          "type": "string"
        }
      ],
      "name": "checkEvidenceExists",
      "outputs": [
        {
          "internalType": "bool",
          "name": "",
          "type": "bool"
        }
      ],
      "stateMutability": "view",
      "type": "function"
    }
  ],
  "bytecode": "0x608060405234801561001057600080fd5b506103cc806100206000396000f3fe608060405234801561001057600080fd5b50600436106100365760003560e01c806351a94a5f1461003b578063dfd8bcb414610057575b600080fd5b6100556004803603810190610050919061028f565b610087565b005b610071600480360381019061006c919061028f565b6100e1565b60405161007e91906102f3565b60405180910390f35b60008160405160200161009a919061037f565b604051602081830303815290604052805190602001209050600160008083815260200190815260200160002060006101000a81548160ff0219169083151502179055505050565b600080826040516020016100f5919061037f565b60405160208183030381529060405280519060200120905060008082815260200190815260200160002060009054906101000a900460ff16915050919050565b6000604051905090565b600080fd5b600080fd5b600080fd5b600080fd5b6000601f19601f8301169050919050565b7f4e487b7100000000000000000000000000000000000000000000000000000000600052604160045260246000fd5b61019c82610153565b810181811067ffffffffffffffff821117156101bb576101ba610164565b5b80604052505050565b60006101ce610135565b90506101da8282610193565b919050565b600067ffffffffffffffff8211156101fa576101f9610164565b5b61020382610153565b9050602081019050919050565b82818337600083830152505050565b600061023261022d846101df565b6101c4565b90508281526020810184848401111561024e5761024d61014e565b5b610259848285610210565b509392505050565b600082601f83011261027657610275610149565b5b813561028684826020860161021f565b91505092915050565b6000602082840312156102a5576102a461013f565b5b600082013567ffffffffffffffff8111156102c3576102c2610144565b5b6102cf84828501610261565b91505092915050565b60008115159050919050565b6102ed816102d8565b82525050565b600060208201905061030860008301846102e4565b92915050565b600081519050919050565b600081905092915050565b60005b83811015610342578082015181840152602081019050610327565b60008484015250505050565b60006103598261030e565b6103638185610319565b9350610373818560208601610324565b80840191505092915050565b600061038b828461034e565b91508190509291505056fea2646970667358221220510c3f2c4a838ef46fb6a1e80831e4879e4f76a9ab29c5c33fcf4cc31150166464736f6c63430008120033",
  "linkReferences": {},
  "deployedLinkReferences": {}
}